:020000022000DC
:1060000000000120756302005D6302005F6302000F
:106010006163020063630200656302000000000028
:1060200000000000000000000000000067630200A4
:1060300069630200000000006B6302006D630200F0
:10604000ADD602006F63020029DB0200B9DC02005A
:106050006F6302006F630200A5D9020009E202002B
:106060006F6302006F6302006F6302006F630200E0
:106070006F6302006F6302006F6302006F630200D0
:106080006F6302007D7202006F6302006F630200A3
:10609000197302006F63020065C502006F6302009E
:1060A0006F6302006F6302006F6302006F630200A0
:1060B0006F6302006F630200000000000000000038
:1060C0006F6302006F6302006F63020049E7020022
:1060D0006F6302006F6302006F6302000000000044
:1060E00000000000000000000000000000000000B0
:1060F00000000000000000000000000000000000A0
:10610000000000000000000000000000000000008F
:10611000000000000000000000000000000000007F
:10612000000000000000000000000000000000006F
:10613000000000000000000000000000000000005F
:10614000000000000000000000000000000000004F
:10615000000000000000000000000000000000003F
:10616000000000000000000000000000000000002F
:10617000000000000000000000000000000000001F
:10618000000000000000000000000000000000000F
:1061900000000000000000000000000000000000FF
:1061A00000000000000000000000000000000000EF
:1061B00000000000000000000000000000000000DF
:1061C00000000000000000000000000000000000CF
:1061D00000000000000000000000000000000000BF
:1061E00000000000000000000000000000000000AF
:1061F000000000000000000000000000000000009F
:10620000354936480A1A02D0072291438D4634494F
:1062100034480A1A06D00722914381F309880222E2
:1062200082F3148830483149314A00F044F831484B
:106230003149324A00F03FF831483249324A00F0E1
:106240003AF832483249334A00F035F83248334997
:10625000334A00F030F833483349344A00F02BF821
:1062600033483449344A00F026F83448344900228F
:1062700000F02CF833483449002200F027F8334866
:106280003349091A082902DB002202604160314AC1
:1062900090471F481F49884205D00268043003B464
:1062A000904703BCF7E700208646EC46002000211B
:1062B000294A9047FEE7884207D0521A05D0037852
:1062C00001300B700131013AF9D17047884202D098
:1062D00002700130FAE770470000012000E0002062
:1062E000000001200000012024170300AC3300202F
:1062F00010360020D4630200D4630200A0FB020029
:1063000024170300AC330020AC330020E4FC02006F
:10631000E4FC0200E4FC0200E4FC0200E4FC0200F5
:10632000E4FC0200E4FC0200E4FC0200231703008A
:106330008819030010360020103600201036002087
:1063400038490020384900203C4900203C490020C1
:106350003C6900209D630200C59E0200FEE7FEE747
:10636000FEE7FEE7FEE7FEE7FEE7FEE7FEE7FEE705
:10637000704700BF1048804710484FF0070188431E
:1063800085460F4880470F48016841F4700101605D
:10639000BFF34F8FBFF36F8FFFF732BF0A480B4930
:1063A0000B4A884207D0521A05D0037801300B708F
:1063B0000131013AF9D170477163020000000120F8
:1063C000ED88020088ED00E0D0FC02009833002048
:0463D000AC330020CA
:1063D40000487047304900207047000007B5044B5F
:1063E4000093044A402300F032F803B05DF804FB44
:1063F400FD630200113600202DE9F8438846144657
:10640400B2B10F4B0F4E0325002743F0010922467A
:1064140008EB0701002004F0B5FD0744241A48B92D
:1064240033782BB14FF47A40C847013D02D135701F
:10643400BDE8F88301233370002CE8D1F8E700BFEE
:10644400F0FC020010360020704704F0CFBDF0B518
:1064540095B01D46164608460C4601F06BFD1A9B86
:106464000D93CDE9086500252B46082205A9204691
:106474000A958DF82C500C9501F079FD079B029339
:10648400069B03939DF814308DF8115003F003021A
:10649400012A1DD1BDF81420059DC3F3C203C2F324
:1064A40083168DF81030B20008230EA9204601F09F
:1064B4005EFDC5F3952508AB0093324602AB0EA9E9
:1064C400284600F0CFFB204601F038FD15B0F0BDA2
:1064D400022AF8D1BDF81650C3F3C203C5F38915D7
:1064E4008DF810300827082D2E4628BF08263B4675
:1064F40032460EA9204601F03AFDAD1B08AB02AAB4
:1065040031460EA8374400F011FC002DEBD1DAE738
:1065140008B5FFF79AFF0448042100F00BFB034B76
:1065240001225A7108BD00BFC0FC0200AC33002038
:10653400037813F0040216D003F00303012B03D0F5
:10654400022B09D0012070470A6800880232C0F388
:10655400831002440A60F5E70B684288023303EBB8
:1065640092130B60EEE71046704700002DE9F04FE0
:1065740087B000230446861C0DF107000F4615461C
:106584008DF8073001F0CAF8454801683960D0E950
:106594000132134401335B1A824600F21C4700F5B2
:1065A400836900F21448B3421CD30020002D73D039
:1065B40004F00F039B0143F0050363F30F00DAF8C3
:1065C4000020DAF808301340033316444AF8230055
:1065D4009DF80700CAF8006001F0C4F8012007B074
:1065E400BDE8F08F0121384601F0D3F9484601F0A7
:1065F400EBF9404601F0E8F9DAF80400DAF808B0FB
:10660400029000EA0B0003300AEB800002A9FFF7B6
:106614008FFF029B50BB0BEA03020AEB820203F1D9
:10662400020CD2680392013303EA0B0B0AEB8B0BC7
:1066340002F00302012ADBF80C10CDF808C023D0C5
:10664400022A16D08346404601F0C1F910B1029BDC
:10665400CAF804305946384601F09BF9DAE90123B7
:106664001344DAF8002001339B1A9CE70BEA030079
:10667400C9E7BDF80E30C3F3891303334FEA114B56
:106684000CEB93030293DEE7BDF80C30C3F38313E2
:106694004FEA114B6344F5E7A40544F006008EE786
:1066A400243700200B4B0C48FF2210B59A600022BF
:1066B400C3F81824C3E90022C3F8142483F820245F
:1066C40001F0F1FB044610B9044801F0F5FC204642
:1066D40010BD00BF243700203CFC02002CFD02004A
:1066E40030B50A4C71B10A4A0A49121BD208002378
:1066F4009A4201D1002030BD31F82350854202D0A6
:106704000133F5E7034654F83300F4E750FC020084
:10671400C0FC0200AC330020094B013903EBC0007C
:10672400032909D8DFE801F00A02040604207047AF
:106734000079704740797047002070470220704705
:1067440050FC0200034BD3E90030C31A58425841AD
:10675400704700BF243700202DE9F04387B0FFF7CE
:10676400F1FF0646002840F0F9807D4DC5F8180475
:10677400BFF34F8F6B68AC6802932340033305EB80
:10678400830002A9FFF7D4FE029B18B1D5F81824A0
:10679400002A5FD004EA0302991C013305EB82024C
:1067A400234005EB8303D268DB68049302F0030300
:1067B400022B0392029160D1BDF80E306948C3F3F5
:1067C4008917502FB84628BF4FF0500868F38F132D
:1067D40008F10801ADF80E3001F07DFB06460028F3
:1067E40000F0A78001F0A6FB0023082203A930468D
:1067F40001F0B3FB029924EA01020132B8EB820FE3
:106804004FEA820332D95FFA88F85BB32140DCB2E5
:10681400A8EB040803315FFA88F9A046524C05EB53
:10682400810108234246304601F097FB34B108F158
:1068340008034A462146304601F08FFB029B03378A
:1068440003EB97070297D5F81834002B49D1D5F8F4
:10685400104459E02A689A428FD86A60304607B0DB
:10686400BDE8F08340491C469946DAE70C40E11C38
:106874000823424605EB8101DDE7012B59D1BDF820
:106884000C303848C3F38311062928BF062161F36D
:10689400891302318900ADF80C3001F01CFB064667
:1068A400002846D001F046FB0023082203A9304605
:1068B40001F053FB0027BDF80C20C2F38312BB0088
:1068C400974203F10803BED202994A1C21400331C6
:1068D400029205EB81010422304601F03EFB0137B0
:1068E400E9E7304601F02AFBFFF72CFF80F00100B6
:1068F400C6B2B3E7E3685B7923B1236831461B680A
:1069040020469847E3681C68002CF3D1304601F018
:1069140015FB0DF107008DF8074000F0FFFED5F8D8
:1069240018340BB9029B6B609DF8070000F01AFF46
:10693400DAE7D5F8104454B90C4B0D480D49C01A88
:10694400C008000440F0020000F062F8CCE72368BD
:1069540020469B689847E3681C68ECE700267DE7BF
:10696400243700203CFC02003037002050FC020099
:1069740080FC020014FD02002DE9F74F224D04466D
:106984000F46924601A901221846D5F808909B4665
:10699400FFF7ECFD20B3019E4FF00008B21CD84570
:1069A40008EB020126D11948002100F0B7FF80F35B
:1069B4001000000440EA1440E400731C04F038049E
:1069C40003EA090306EA090644F0010405EB83031C
:1069D400033644EA881444EA8724D86045F82640FC
:1069E40095F820341BB1FFF7B7FE0028FBD103B0A4
:1069F400BDE8F08F09EA010105EB81015AF828305E
:106A0400CB6008F10108CAE724370020403B00208E
:106A140000231A46FFF7B0BF07B50123019201AA6C
:106A2400FFF7AAFF03B05DF804FB07B5CDE9002327
:106A340002236A46FFF7A0FF03B05DF804FB1FB50D
:106A4400CDE90123069B039301AA0323FFF794FFD7
:106A540005B05DF804FB7FB5CDE90123089B0393E2
:106A6400099B04930A9B059301AA0523FFF784FF5E
:106A740007B05DF804FB00002DE9F3472B4D0446F5
:106A8400D01C8946164601A900228008AF68FFF78A
:106A94006DFDA8B3DDF80480AB6808F10200019035
:106AA400013338401B1AB6EB830F00F103004FEAA1
:106AB400830A05EB80002DD83246494608F065FC70
:106AC4001B48002100F02AFF80F3100008F10103A5
:106AD4003B4007EA0807220C05EB8303033742EA2D
:106AE4000040E400D86004F0380455F8273044F03E
:106AF400020444EA865203F47C131A4345F827201F
:106B040095F820341BB1FFF727FE0028FBD102B013
:106B1400BDE8F0875246494608F037FCA6EB0A0266
:106B240009EB0A0105F10C00C8E700BF2437002077
:106B3400403B002030B50F49D1F810240346002013
:106B4400144634B9DC6820714AB9C1F810342260A3
:106B540030BDE4682579854206D02468F1E7D2681F
:106B6400116821601360F3E701300A28E8D14FF07F
:106B7400FF30EDE724370020094A38B50123D2F865
:106B8400104482F820341D4604B938BDE3685D71B1
:106B9400236820465B689847E3681C68F4E700BFF5
:106BA4002437002007B503460846197A052911D071
:106BB4005B7A2BB1094A0A49019000F06BFF0198F6
:106BC4000849019000F066FF019803B05DF804EBFA
:106BD40000F055BF002AF8D0F2E700BF38FD0200EC
:106BE400560C0300470D030030B5C38885B0044636
:106BF4000D4633B1144A00921449154A284600F050
:106C040049FF217A05291DD0637A4BB1A088FFF78B
:106C140083FD104B104953F82020284600F03AFF1A
:106C2400227A0E4BA08853F8222003920021FFF70A
:106C340057FD039A0A490346284605B0BDE830408B
:106C440000F028BF05B030BD38FD020045FD02004C
:106C54003DFD0200C8FD0200560C0300ECFD0200DD
:106C64005DFD02002DE9F04385B01F460C9D002315
:106C740095F80C902B7306460C46904629463846E8
:106C8400FFF7B2FFB8F1060F09D8DFE808F00412E5
:106C9400181F283340003146284600F0FBFE00222E
:106CA40029463846FFF77EFF85F80C9005B0BDE80D
:106CB400F08322683146284600F0ECFEEFE7D4E981
:106CC40000233146284600F0E5FEE8E7A368009378
:106CD4003146D4E90023284600F0DCFEDFE7E36810
:106CE4000193A36800933146D4E90023284600F0B9
:106CF400D1FED4E723690293E3680193A368009368
:106D04003146D4E90023284600F0C4FEC7E763698E
:106D1400039323690293E3680193A36800933146C4
:106D2400D4E90023284600F0B5FEB8E708292DE988
:106D3400F74F80460E4617461C4639D8002593F86F
:106D44000C901D7319461046FFF74EFFDFF880A024
:106D5400DFF880B0AE422ED918F8052059462046F7
:106D640000F098FE0135082DF4D11849DFF868A029
:106D7400DFF868B0204600F08DFE0025AE421FD932
:106D840018F805200192104608F054F90028019AD9
:106D9400594608BF2E22204600F07CFE0135082DFE
:106DA400ECD1012221463846FFF7FCFE84F80C9012
:106DB40003B0BDE8F08F5146204600F06BFED1E7EA
:106DC4005146204600F066FEE8E700BF71FD020070
:106DD4006DFD020067FD02006FFD020073FD0200FD
:106DE4002DE9F04F364E87B04FF00009354B1B7834
:106DF4005FFA89F5AB4202D807B0BDE8F08F324B99
:106E0400D3F800A01AF835000124D6E9001EA0F139
:106E14002002C0F1200304FA02F224FA03F313431C
:106E240004FA00FC059301EA0C030093059B0EEAA7
:106E340003030193DDE9002313430AEBC50B3BD0A5
:106E4400059B21EA0C012EEA0303C6E9001306F0B0
:106E54009DFD01461AF835001C4DA0F12002C0F139
:106E6400200304FA02F224FA03F31343D5E900C21F
:106E74008440134004EA0C040393A0F12002C0F1FF
:106E8400200321FA03F3029401FA02F848EA030802
:106E9400DDE9023401FA00F7444508BFBB420BD1D7
:106EA400DBF8043043B19BF80120541E6242624176
:106EB400551A69426941984709F1010996E700BFEB
:106EC400103C0020E03B0020183C0020083C00203F
:106ED400F8B506461E4800F005FCC0BB0125A6F126
:106EE4002004C6F1200325FA03F305FA04F41C4335
:106EF400184BD3E900C2B5400CEA050002EA0401CC
:106F040001431F461DD1304606F040FD124BD3E924
:106F1400001288B129432243C3E90012D7E90023B0
:106F24001C430E4B0A4819681543C7E90054002254
:106F3400BDE8F84000F08EBB21EA050122EA040214
:106F4400EAE72CEA050522EA0404C3E90054F8BD83
:106F5400E83B0020103C0020083C0020E43B0020DB
:106F6400042A2DE9F34105460C46164639D906F0A4
:106F74002BFCD8B11C4B1D491D601D4BDFF88480D0
:106F84001C701C4B00221E600023C1E900231A4917
:106F9400C1E90023013CE4B200260327FF2C0CD1F5
:106FA400164A1748002100F043FB03E006F0D2FB29
:106FB4000028DFD002B0BDE8F08105EBC40315F86A
:106FC40034009B788DF80660424601A98DF8047060
:106FD4008DF8053006F002FC013CE4B20028DDD057
:106FE400E8E70720E6E700BF183C0020083C002043
:106FF400E03B0020E43B0020103C0020E56D020053
:1070040000FE0200D56E020070B5084D084E002443
:107014002B789C4201D3002070BD3368012113F802
:10702400340006F04DFC0134F2E700BFE03B0020E1
:10703400183C002070B5094D094E00242B789C4261
:1070440004D3BDE87040074800F04CBB336813F824
:10705400340006F079FC0134F0E700BFE03B002087
:10706400183C0020E83B00201FB50021039001AA32
:1070740044F20100CDE9011100F030F805B05DF8EB
:1070840004FB000082B001238DF807309DF807301F
:10709400114B1860596044F2010188429A6012D081
:1070A40044F20201884206D1DA60DA6812889A61F1
:1070B400DA685268DA6172B69DF80730002BFBD1AA
:1070C40062B602B070471A611A6992685A611A6905
:1070D40012689A611A69ECE71C3C0020F0B5064678
:1070E40087B00F46154672B6FFF746FDFFF734FB2F
:1070F4000028FBD1234B244CE41AE40844F2010396
:1071040024049E4244F001042AD00BD8012E14D04A
:1071140041F201039E4221D01C493A462046FFF722
:107124007BFC0EE044F202039E42F5D12B886A6890
:1071340017492046FFF779FC03E016492046FFF77C
:1071440067FC154B1B68DB0700D500BE2A46394691
:10715400304607B0BDE8F040FFF794BF0F49EDE7B4
:10716400AA680592104600F0E5FF2968029701918C
:107174006968009103460A49059A2046FFF76BFCAB
:107184000849DBE750FC020080FC020097FE020085
:1071940043FE020004FE0200F0ED00E021FE0200C6
:1071A4005DFE020083FE0200094A537891780133A0
:1071B400DBB2994208BF0023117899421FBF0370C4
:1071C4005078182303FB002014BF043000207047BC
:1071D4003C3C002073B5054600240DF107000E4623
:1071E4008DF8074000F09AFA0DF10600FFF7DCFF76
:1071F40090B10670094B9DF8062045605A709DF8C1
:10720400070000F0AFFA24B9054B4FF48012C3F81D
:107214000021204602B070BD0424F0E73C3C00206D
:1072240000E100E0024B4FF43C6043F001031847D7
:10723400B0FE020038B50C4B0C4C4FF40032C3F8CE
:10724400802001254FF48033C4F84833C4F8083350
:107254006560FFF7E7FF064BA56000241C60FFF79D
:10726400E1FF044B1C7038BD00E100E00010014058
:10727400483E0020393E0020F8B51F4B1F491B68CB
:107284000025C1F84051C1F84451C1F84851C1F832
:107294004C51C1F80051C1F804514BB3D1F8044525
:1072A40017490968641A24F07F442F461A68A242D9
:1072B40009D8A41A15441A7CDE691AB1D3E9052049
:1072C4001F749047AEB90F4A0F4B11781B788B424D
:1072D40005D10133DBB2022B08BF002313701278EF
:1072E4000A4B43F822500A4B4FF48012C3F8002192
:1072F400F8BD3346DAE700BF4C3E002000100140E1
:10730400483E0020453E0020443E00203C3E0020F4
:1073140000E100E02DE9F04FA24AA349137809786F
:10732400A24D994285B03CD00133DBB2022B08BF99
:10733400002313709E4912789E4B0F6853F8220065
:107344003B1823F07F4300220B602B68164614463B
:10735400944613B942B12B6006E0196881420ED9F4
:1073640002B12B60091A196001272B68DFF84CA2BF
:1073740001934FF00008BEB9DFF848B262E0401A4A
:107384000C44D968D3F81CE0C3F800C031B13A19F1
:1073940022F07F42C3E90121DE611E4673460122C9
:1073A400D7E700263746E0E73446F669804A636843
:1073B4001268DFF814C2A068991A21F07F41614570
:1073C40000F2A88001442160012222742A6800236B
:1073D400C4E90133E361002A40F0A5802C60CAE7C8
:1073E4009BF802105A1CD2B291428BF8002004BFC1
:1073F40000228BF80020182202FB03B32A681979B3
:107404009C68022977D0032900F08180012919D1D1
:10741400207CB8B9D3E90312A2605A69E2609A6980
:10742400654BA2611B78002B0CBF0B4603466360BF
:10743400BCE78C4200F094808946C9690029F8D1E0
:10744400002323749BF800309BF801209A42C7D193
:107454002B68B8F1000F04D1019A9A4201D1002F90
:1074640043D0002B79D0D3F800A0544D504BD5F81D
:1074740004751C68DFF854813E1B98F8003026F030
:107484007F4603369BB94FF48033C5F84433C5F8BF
:1074940004334B4B4FF400324FF00109C3F8802101
:1074A4001A60C5F80090FFF7BDFE88F80090B24559
:1074B4002CBF5444A41924F07F44C5F84045D5F8A2
:1074C4000435DB1B23F07F43E41B033324F07F44A8
:1074D400A3420AD9D5F80435C5F84035FFF7A2FE12
:1074E400374B4FF40032C3F80021334B00221A709B
:1074F40005B0BDE8F08F114691469FE71174D2693B
:107504000123002AFAD1002B9CD02A609AE7002399
:107514001946F6E7D31A23F07F43834234BFC31AD4
:107524000023236050E721681368994213D8591A3D
:107534001160E26152E7091AD8691A4638B1034664
:1075440018688842F7D3401A186018461346216019
:10755400E061DC610FE71346F2E7FFF76BFEC4E777
:107564004C4511D1D3692B6073B9DFF844E0012095
:10757400CDE90212CAF80800CEF800300E4B18709C
:10758400FFF750FEDDE902120B68C969C9F81C1047
:1075940011B1086803440B602B68934218BF4FF085
:1075A40001084DE7443E0020453E00204C3E0020AB
:1075B400483E00203C3E0020383E002000100140A0
:1075C40000E100E03C3C0020FEFF7F00393E00204B
:1075D40008B5FFF72FFE104B0020152218809A7073
:1075E4000E4B18600E4B18700E4B18700E4B4FF468
:1075F4008012C021C3F8802183F814131A6002F1A9
:107604008042A2F56F22C2F8080583F81113074BD4
:10761400D2F804251A6008BD3C3C00204C3E0020F2
:10762400443E0020453E002000E100E0483E0020AA
:10763400074B9B784BB132B128B10368187C20B951
:1076440059745A617047072070470820704700BF7B
:107654003C3C00202DE9F743DFF8848098F80230A1
:1076640005460E461746ABB3A0B3042930D9436987
:1076740083B3437C0024012B0DF107000CBF894622
:10768400A1468DF8074000F049F80DF10600FFF718
:107694008BFDD8B1012303700F4B4560D3F804353B
:1076A400C0E90497C0E902369DF8063088F8013035
:1076B4009DF8070000F056F824B9084B4FF48012E7
:1076C400C3F80021204603B0BDE8F0830424EFE7AB
:1076D4000724F7E70824F5E70010014000E100E083
:1076E4003C3C0020064A92783AB130B1426922B15A
:1076F400002202740221FFF76DBD0820704700BF0D
:107704003C3C0020044B9B781BB103210020FFF775
:1077140061BD0820704700BF3C3C002070B5EFF30A
:10772400108672B60C4A946801239CB993600B4B83
:107734000B4DD3F8801029401160C3F88050D3F862
:10774400841051604FF0FF32C3F88420047006B9EE
:1077540062B670BD0370FAE7503E002000E100E01D
:10776400FC06FFBD084B9A6810B55AB150B9EFF347
:10777400108172B6054A1C6814605C685460986095
:1077840001B962B610BD00BF503E002000E100E028
:1077940010B561B1B2FBF3F403FB1424A4B244B9F1
:1077A400C0E9001484608281C381204610BD0E208C
:1077B400FCE70920FAE782B050E8022FC188B2EB57
:1077C400324F4FF0000317BF92B241EA014142EA3F
:1077D400014104E04268B2EB324F08BF012340E8A4
:1077E4000212002AE8D18DF807309DF80730002BEB
:1077F4000CBF1120002002B0704737B550E8013F9C
:107804009DB2C48925448489A54228BF2D1B0489BF
:10781400A54202BFBFF32F8F002207E0C5EA03058C
:1078240040E80154002CE9D14FF001028DF8032007
:107834000193019B9DF803200B6002F0FF0322B12A
:107844000B880068184403B030BD1846FBE70A886B
:107854004B889A4209D150E8012FC2EA024240E81B
:107864000123002BF7D1012070470020704737B562
:1078740050E8023F1FFAA3F5C488A54202BFBFF334
:107884002F8F00220DE0C48925448489A54228BF96
:107894002D1BC3EA054540E80254002CE8D14FF003
:1078A40001028DF803200193019B9DF803200B60D6
:1078B40002F0FF0322B14B880068184403B030BDC6
:1078C4001846FBE70A884B889A4209D150E8022FF0
:1078D400C2EA224240E80223002BF7D1012070477C
:1078E4000020704701F01F024B090121914000EB79
:1078F400830000F02AB801F01F0301229A404B09CB
:1079040000EB8300D14300F038B84B0901F01F01AC
:1079140050F82300C84000F00100704710B503463A
:1079240053E8000F0A4643E8002494F0000FF7D10F
:1079340010BD10B5034653E8000F40EA010243E8C6
:10794400002494F0000FF6D110BD10B5034653E89F
:10795400002F42EA010043E8000494F0000FF6D13E
:1079640010BD10B5034653E8000F00EA010243E8D6
:10797400002494F0000FF6D110BD10B5034653E86F
:10798400002F02EA010043E8000494F0000FF6D14E
:1079940010BD10B5034653E8002F02EB010043E885
:1079A400000494F0000FF6D110BD10B5034653E85F
:1079B400002FA2EB010043E8000494F0000FF6D17D
:1079C40010BD0121FFF7B5BF0121FFF7BEBF0021A4
:1079D400FFF7C7BF10B590B1D0E9012301689B1A26
:1079E400DBB20A60013BDBB2FF2B026802D100204C
:1079F400107110BD11684C1C14600B70F2E70E205E
:107A0400F7E737B5054600240DF107008DF8074068
:107A1400FFF784FE2A686B68116899420ED9481EE4
:107A2400106011F8014CEB68298A01FB0434AB683F
:107A340011791B1ADBB2994238BF13719DF8070004
:107A4400FFF790FE204603B030BD37B5054600234E
:107A54000DF107000C468DF80730FFF75FFE2A682A
:107A64001368591C1160E968641A298AB4FBF1F49B
:107A74001C709DF80700FFF775FE03B030BD8268E7
:107A840010B504462AB14369016800699847002388
:107A9400A36010BD0EB403B5039921B104AB01AAD0
:107AA400019300F06FF802B05DF804EB03B0704787
:107AB400826830B40468551C8560A154D0E9013251
:107AC4009A4202D330BCFFF7DABF30BC70470000E3
:107AD4002DE9F84F9846DDE90A43154682460F46DC
:107AE4000A464FF00109AA420FD2C14538BFC14628
:107AF40013F0010B01D16CB900240126B8F1010F78
:107B04001BD908F1FF386E43F8E709F10109B2FB0C
:107B1400F5F2E8E79B070ED5B8F1000F0CBF30264D
:107B24002026A145E9D2013C31465046FFF7C0FF6B
:107B3400002CF6D1E0E72026F3E7B7FBF6F39D42ED
:107B4400E1D9DFF83C80B7FBF6F3504618F8031090
:107B540006FB1377FFF7ACFF3346AB42B6FBF5F6F3
:107B6400F1D2BBF1000F02D00CB1A14501D3BDE8A5
:107B7400F88F20215046013CFFF79AFFF4E700BF3D
:107B8400B6FE02002DE9F74F054617468846002940
:107B940000F0428118F8011B49B92B7B002B00F03F
:107BA4003B81284603B0BDE8F04FFFF768BF2529A5
:107BB40040F0B780002698F800302D2B424608F19B
:107BC400010823D0302B24D02B2B25D000242A2BA2
:107BD40002F1010123D13B681A1D1B683A601C4461
:107BE4000A4613782E2B26D101324FF0000A104694
:107BF40010F8011BA1F1300CBCF1090F1DD80A23A8
:107C040003FB0A13A3F1300A0246F0E746F001062B
:107C1400D1E746F00206CEE746F00406CBE711F8BA
:107C2400013CA3F130000928DBD80A2202FB04340A
:107C3400303C0A46CBE74FF0000A12F8011B01F072
:107C4400FB0068289046F8D0782909D86F290CD809
:107C5400632962D022D8252963D0582900F088806E
:107C640098F80030002B95D197E770390829F7D898
:107C740001A353F821F000BFF77D0200657C0200E8
:107C8400657C0200857D0200657C0200637D020044
:107C9400657C0200657C0200757D0200642901D0C8
:107CA4006929DDD13A68D2F80090111D89EAE97298
:107CB4003960A2EBE9724FF0010B092A35DCD34598
:107CC40038BFD3462CB1B9F1000F01DB720700D5E0
:107CD400013CB30702D5BAF1000F03D0F00701D479
:107CE4004CBB0024B9F1000F2DDAC9F100092D2194
:107CF4002846FFF7DDFE06F00302022A04D1BAF19A
:107D0400000F01D11CBB0024CDE9004653460A22D2
:107D140049462846FFF7DCFEA2E73B681A1D19789E
:107D24003A602846FFF7C4FE9AE70A230BF1010BD9
:107D3400B2FBF3F2C1E7A345D4D220212846013C8B
:107D4400FFF7B6FECCE77107D5D52B21D0E7A345C5
:107D5400DAD230212846013CFFF7AAFED2E739687F
:107D6400CDE900460A1D3A6053460A220968D0E765
:107D740039680A1D3A60CDE9004653461022F5E7FA
:107D84003B681A1D3A6016F00106D3F8009028D11A
:107D9400B9F1000F03D0484607F09CFB0646B442F5
:107DA40000D904BB09F1FF3919F8011F00293FF478
:107DB40057AF2846FFF77CFEF6E728460136FFF763
:107DC40077FE19F806100029F7D1A642BFF448AF90
:107DD400002C3FF445AF20212846013CFFF768FE04
:107DE400F3E70026EDE720212846013CFFF760FE7B
:107DF400D5E73B681A1D3A60302128461C68FFF716
:107E040057FE78212846FFF753FE00220823CDE9C8
:107E14000032214610227CE703B0BDE8F08F00BF9A
:107E24002DE9F84FB0F806A04579D2F800B09DF8D6
:107E340028900AFB05F5043D88460BEB0301A94293
:107E440003F1040488BFA5EB030BB4FBFAF6074661
:107E54000AFB1644C2F800B04EB9AAEB04055D450E
:107E640028BF5D46BBF1000F04D1BDE8F88F3F6821
:107E7400013EF1E7043408EB06003C442A46B9F11C
:107E8400000F0DD02146ABEB050B07F07EFADA4567
:107E94002E443F6855464FF0000428BF5D46E1E795
:107EA40001462046EFE7FFF795BDF8B54679014650
:107EB400721E0546002393422D6803D30024A64274
:107EC40002D8F8BD0133F6E70F682846FFF7BDFD79
:107ED40001343946F3E72DE9F843068ACD1C0746F9
:107EE400FFF78FFD043E35440446B5FBF6F5F0B1CB
:107EF4004FF48073EDB28380C680013D07608146F4
:107F04004FF00008A84512D23846FFF77AFD06461E
:107F140048B163790133637108F10108C9F80000BD
:107F240007608146EEE72046FFF7BFFF3446204650
:107F3400BDE8F88301210430FFF72BBD10B5012102
:107F440004460430FFF731FD10F0FF0F04D1204642
:107F5400BDE81040FFF7A9BF10BD1FB50392002272
:107F6400009203AAFFF75CFF05B05DF804FB1FB5A0
:107F740003920122009203AAFFF752FF05B05DF8B5
:107F840004FB33DF704741DF70470000064B10B538
:107F940000241C70054B1C60BFF35F8F0449054827
:107FA40000F093F8204610BD653E0020683E002096
:107FB400D0FE02005C3E002007B500230DF107004F
:107FC4008DF80730FFF7AAFBF1EE103A23F09F0378
:107FD400E1EE103ABFF35F8F094B4022C3F88421CE
:107FE4009DF80700FFF7BEFB04F0A0FA20B1FFF7ED
:107FF400CAFF03B05DF804FB20BF40BF20BFF8E711
:1080040000E100E070B5264D044601212846FFF743
:1080140085FCBFF35F8F2E4638B9042C0AD0214B60
:108024001A781AB1BFF35F8F286070BD1E4A1470AE
:1080340001221A701D4C1C4D6368BBB9FEF79CFDF0
:10804400FEF78AFB0028FBD1174B1B78023B012B60
:1080540014D8BFF34F8F1649164BCA6802F4E06276
:108064001343CB60BFF34F8F00BFFDE71B68287835
:10807400984788B1204600F032F8DDE704F056FA5C
:1080840008B1FFF77EFF4FF080430122C3F80025BB
:10809400BFF34F8F20BFFDE7BFF35F8F3060C4E7AE
:1080A400683E0020653E0020643E00205C3E0020C7
:1080B40000ED00E00400FA05836800225A60C3E979
:1080C40004229A60DA601A6070470B684A68436059
:1080D400934208BF0023016008BF436070474368B0
:1080E40043B10268916852680B449342436004BFF1
:1080F400002343607047000010B50D49A1F5947248
:10810400914201D800200FE08C1AE30F03EBE40343
:108114005B1002EBC30452F83330834205D802D219
:1081240004F10802ECE7606810BD2146E8E700BFEF
:10813400D403030008B5FFF7DFFF024B002808BF94
:10814400184608BD9602030013B50B46114680B9C4
:10815400104B1148114AC01A0E23C0080093104B4B
:108164000004104940F00100FEF769FC0E2002B043
:1081740010BD4BB9074B08480B4AC01AC0080E2360
:1081840000930004064BECE703601B6802B0BDE8F3
:108194001040184750FC020098FC0200D40303006E
:1081A4006A050300D90303000804030013B5044659
:1081B40080B9114B1148124AC01AC0080E24114B41
:1081C4000094000440F001000F49FEF738FC2046FB
:1081D40002B010BD03684BB9074B08480B4AC01ADC
:1081E400C0080824074B00940004EBE75B68984739
:1081F4000023C4E90033EBE750FC020098FC0200C2
:10820400D40303007C050300D90303000204030024
:10821400F7B580B92D4B2E482E4AC01AC0080E243B
:108224002D4B009400042D4940F00100FEF707FC9B
:10823400204603B0F0BD4AB9244B2548284AC01A49
:10824400C0080E24244B00940004ECE7D0F800C0CE
:10825400BCF1000F09D11D4B1D48224AC01AC008A9
:1082640008241D4B00940004DDE74BB9174B184854
:108274001D4AC01AC0080924174B00940004D2E711
:108284008D0709D0114B1248184AC01AC00810248F
:10829400114B00940004C6E7C568A9420BD34D1ED8
:1082A400EC180569AC4206D8DCF80840A44603B0D3
:1082B400BDE8F0406047054B05480D4AC01AC008A8
:1082C4001024054B00940004ADE700BF50FC0200ED
:1082D40098FC0200D403030090050300D9030300B3
:1082E4000E04030002040300150403001904030030
:1082F400300403002DE9F34188B93D4B3D483E4A23
:10830400C01AC0080E243D4B009400043C4940F0C0
:108314000100FEF794FB204602B0BDE8F0814AB9A3
:10832400334B3448374AC01AC0080E24334B0094E8
:108334000004EBE7D0F800E0BEF1000F09D12C4BAC
:108344002C48314AC01AC00808242C4B009400045D
:10835400DCE74BB9264B27482C4AC01AC00809242D
:10836400264B00940004D1E74568D5F80480B3FB9C
:10837400F8F508FB15354DB11D4B1E48244AC01AAB
:10838400C00809241D4B00940004BFE78D0709D0E1
:10839400174B18481F4AC01AC0081024174B0094E2
:1083A4000004B3E712F0030F09D0114B11481A4A25
:1083B400C01AC0081024114B00940004A6E7C56835
:1083C400A9420BD34D1EEC180569AC4206D8DEF861
:1083D4000C40A44602B0BDE8F0416047044B054898
:1083E4000E4AC01AC0081024044B009400048DE700
:1083F40050FC020098FC0200D4030300A205030011
:10840400D903030056040300020403001504030007
:108414005C040300860403009E040300C1040300FB
:10842400F7B580B92A4B2B482B4AC01AC0080E2432
:108434002A4B009400042A4940F00100FEF7FFFA99
:10844400204603B0F0BDD0F800C0BCF1000F09D144
:108454001F4B2048234AC01AC00808241F4B00940D
:108464000004E8E74AB91A4B1A481F4AC01AC00860
:1084740009241A4B00940004DDE74768D7F800E0AC
:108484000EF1FF370F4209D0114B1248174AC01A98
:10849400C0081024114B00940004CCE7C768B9420B
:1084A4000CD304694D1E0EFB0255A54206D8DCF818
:1084B4001040A44603B0BDE8F0406047044B0548B3
:1084C4000B4AC01AC0081024044B00940004B2E7FD
:1084D40050FC020098FC0200D4030300B50503001D
:1084E400D90303000204030015040300E804030095
:1084F4000E05030070B550B90E4D0F4C0026641BD9
:108504001423B4FBF3F4B44208D1002010E0036850
:10851400002BF1D0BDE87040DB6918472B6813B914
:1085240001361435EFE7DB69284698470028F7D071
:1085340070BD00BF98330020AC33002029DF7047A2
:1085440028DF704770B503689E6886B004460D4600
:108554006EB114220021684606F040FFA36805931B
:10856400237901952BB1012B0DD06846B04706B095
:1085740070BD01238DF8003023690293E3680393EF
:1085840063690493F1E702238DF80030E3681B0369
:108594000293F5E70846704700207047024B187AAB
:1085A400003818BF01207047083F0020034B187A99
:1085B4000122B0FA80F05A7440097047083F002045
:1085C40008B510461A4606F0E0FE002008BD00007B
:1085D40008B514220021044806F000FF0348FFF701
:1085E400EAF8002008BD00BF083F0020F83E002044
:1085F40010B5094C094B43602046FFF7E2F940B936
:1086040003F094FF064920741C2306488C22FFF7CC
:10861400BFF8002010BD00BF083F0020C8050300BC
:108624006C3E0020F83E002070B5244C244E237A82
:1086340025463BB923492448FFF719F9306008B9A6
:10864400606070BD022334682B72237973B1012BEF
:1086540024D020460321FFF775FF00232B726B60A3
:1086640018491948BDE87040FFF72CB9D4E905232F
:10867400D21AB2F5805FD4E9031028BF4FF48052B8
:108684009208012A38BF012219441844FFF756FF03
:1086940050B11128DDD101232B72D2E7D4E90303B1
:1086A4001844FFF74DFFF3E72B7C002BC9D101469B
:1086B400BDE87040022000F009B800BF083F002068
:1086C400203F00201C3F0020F83E002038B5831EC8
:1086D400012B45D8234C237A002B41D0022B09D1FE
:1086E400032830D0204B00221B68E2601A793AB18B
:1086F400012A22D0637C7BBBBDE83840FFF794BFDE
:10870400D3E905128D1AB5F5805F94BF521902F5AD
:1087140080529A619142EDD102284FF0000308BFC4
:1087240019462372104B18BF0D211868FFF70AFF72
:108734000E490F48FFF7C6F8DCE71A6901321A61DF
:108744005B699A42E7E7E3680133082B01D8E360E9
:10875400D0E70023E360DFE7BDE8384003F0D6BE8E
:1087640038BD00BF083F0020203F00201C3F0020F0
:10877400F83E002000F0FD03012B08D1044B002239
:108784005A74421E504250411874FFF74DBF70474F
:10879400083F002010B5064C201DFFF712F928B938
:1087A400637C1BB9BDE81040FFF73EBF10BD00BF9E
:1087B400083F00202DE9F34180460D460F4801A9EA
:1087C40016461F46FFF719F80446A8B11C220021DB
:1087D40006F004FE2D0B0123237101A90748C4F8F8
:1087E4000080A760E5606661FFF731F8FFF7D2FF0C
:1087F400002002B0BDE8F0810420FAE7F83E002032
:108804002DE9F74381468846104801A917461E46BC
:10881400FEF7F3FF0446B0B11C22002106F0DEFD92
:1088240000250A9BA36001A9C4E9037807482571C0
:10883400C4F800906661FFF70AF8FFF7ABFF28461B
:1088440003B0BDE8F0830420FAE700BFF83E00203F
:10885400BFF34F8F0549064BCA6802F4E062134325
:10886400CB60BFF34F8F00BFFDE700BF00ED00E01A
:108874000400FA050C4B1B78062B10D10B4B1B681C
:108884001A070CD10A4B186800F0F003302B08D0FB
:1088940000F0E000A0F14003584258417047002026
:1088A40070470120704700BFE00F00F0E40F00F0B4
:1088B400E80F00F0094B1B78062B0CD1084B1B6802
:1088C4001A0708D1074B186800F0F000A0F1300334
:1088D4005842584170470020704700BFE00F00F035
:1088E400E40F00F0E80F00F008B5FFF7C3FF28B16C
:1088F400894B8A4A1B68C3F304231360FFF7DAFF2A
:1089040010B1874B874A1A60FFF7B4FF28B1864B32
:10891400864A1B68C3F342331360FFF7CBFF20B1D1
:10892400834AD36823F08073D360FFF7A3FF40B179
:108934004FF080430022C3F80C21C3F81021C3F880
:108944003825FFF7B7FF10B17A4B03221A60FFF7FF
:10895400B1FF40B1784B05221A6001229A670022C8
:108964009A603F225A60754B1B78062B50D1744B8A
:108974001B6818074CD1734B1B6803F0F003502B92
:1089840046D14FF08052704BD2F80414C3F820152E
:10899400D2F80814C3F82415D2F80C14C3F8281517
:1089A400D2F81014C3F82C15D2F81414C3F83015E7
:1089B400D2F81814C3F83415D2F81C14C3F84015AF
:1089C400D2F82014C3F84415D2F82414C3F8481577
:1089D400D2F82814C3F84C15D2F82C14C3F8501547
:1089E400D2F83014C3F85415D2F83414C3F860150F
:1089F400D2F83814C3F86415D2F83C14C3F86815D7
:108A0400D2F84014C3F86C15D2F84424C3F8702586
:108A1400FFF730FF28B14D4B4D4A1B6803F04F035D
:108A24001360FFF727FF48B14FF08043D3F80024C9
:108A3400D10744BF6FF00102C3F80024454B1B6803
:108A4400062B08D1444B1B68062B01BF434A13680D
:108A540043F480631360424AD2F8883043F47003CD
:108A6400C2F88830BFF34F8FBFF36F8F4FF01023DE
:108A7400D3F80C22D2071ED53A4B0122C3F80425A1
:108A8400D3F80024002AFBD04FF01022D2F80C3285
:108A940023F00103C2F80C32324B1A46D3F8001407
:108AA4000029FBD00021C3F80415D2F80034002BB0
:108AB400FBD0FFF7CDFED3F80022002A03DBD3F866
:108AC4000432002B23DA274B0122C3F80425D3F800
:108AD4000024002AFBD04FF010221521C2F8001206
:108AE400D3F80024002AFBD04FF010231522C3F83A
:108AF40004221C4B1A46D3F800140029FBD0002191
:108B0400C3F80415D2F80034002BFBD0D1E7164B80
:108B1400164A1A6008BD00BF240300104035014006
:108B240074C007400DF0ADBA440200103C0500408B
:108B3400F0ED00E0A005004010560040E00F00F00A
:108B4400E40F00F0E80F00F000C0004058020010ED
:108B5400E40E004030010010340100103C170040C6
:108B640000ED00E000E00140B43300200090D003A9
:108B74006DDF704772DF704773DF704776DF7047D1
:108B840077DF704778DF70477ADF70477CDF7047A4
:108B94007FDF70478FDF7047B0DF7047B1DF70470A
:108BA40008B5174A174B9B1ADB081B04032823D864
:108BB400DFE800F002151C2043F003001249FDF722
:108BC40027FF124B18884FF6FF73984216D11321D2
:108BD400FFF7D4FF90B1BDE80840FEF745BA0C4951
:108BE40043F00300BDE80840FDF712BF094943F014
:108BF4000100F7E70849FAE70849F8E708BD00BFAC
:108C040050FC020080FC0200F4050300D233002073
:108C140022060300450603007E060300AB0603009C
:108C2400FEF722BA08B5054B01211878FFF7A4FF17
:108C340018B1BDE80840FEF717BA08BDD0330020CC
:108C440008B50D480D4B0E49C01AC008000440F089
:108C54000300FDF7DDFE02F049F80A48FEF742FD85
:108C640008B1FEF701FA0848FEF73CFD18B1BDE86B
:108C74000840FEF7F9B908BD80FC020050FC020070
:108C8400D2060300CC400020AC400020F8B5334CA1
:108C9400334D2368296803F150028A42314A05DBC7
:108CA400503B994202DB1378002B56D02E4E002302
:108CB40013703268FAB12D48FEF714FD08B1FEF7BF
:108CC400D3F933684EF6602159434FF400404FF412
:108CD400FA760027E0FB01674FF47A7200233046EE
:108CE400394606F081F8002201462048FEF7B2FC1E
:108CF40008B1FEF7B9F91E4B2D681A681D4B2560A3
:108D0400AA1A64251B681C4C1C49554395FBF3F5B2
:108D14001B4BE41AE408240444F003042A462046C6
:108D2400FDF77AFE002DB5BF6B422B46154A164A55
:108D34001648072106F077FA154B1B783BB1154B03
:108D4400124A18881449BDE8F84002F0F1BC2046E4
:108D54001249BDE8F840FDF75BBEF8BD384100207C
:108D640014410020BC410020B84100208C40002068
:108D74001C4100205841002080FC0200070703002A
:108D840050FC020012070300190703003C410020B5
:108D9400BD410020D23300204040002020070300C2
:108DA40070B5264B264C2749E41AE408240444F001
:108DB400030486B0054620461646FDF729FE224BDD
:108DC4001B78012B2AD97389032B25D9042206F198
:108DD4000C010DEB020006F0D8FA1C4B019A1C4959
:108DE4001A602046FDF718FE1022002102A806F0A2
:108DF400F5FA02238DF808300023ADF80C309DF805
:108E04000E3002A943F0010328468DF80E30FFF717
:108E1400C3FE08B1FEF728F906B070BD0D4920461F
:108E2400FDF7F6FD1022002102A806F0D7FA02236E
:108E34008DF8083040F20313DFE700BF50FC020056
:108E440080FC020034070300BD410020584100208B
:108E5400470703005A0703002DE9F0434E4B4F4CDC
:108E64004F49DFF86881E41AE4082404154644F005
:108E7400030485B005F10C0906462046FDF7C8FD3C
:108E84006A8949462046FDF7F7FD6A8945494846FF
:108E940006F096F96A890746E8B9142A1BD14249B3
:108EA4002046FDF7B5FD28223946404806F096FADB
:108EB40004223F493D4806F0CAF93E4A0123137093
:108EC40010223946684688F8003006F087FA0223F3
:108ED4008DF8003016E03849484606F071F96A8981
:108EE400074608BB142A1FD120463449FDF790FDDC
:108EF400022410223946684688F8004006F06EFACB
:108F04008DF800409DF80630ADF8047043F001037D
:108F1400694630468DF80630FFF73EFE08B1FEF78D
:108F2400A3F805B0BDE8F0832049484606F048F9A7
:108F3400074658B91D486D8906F0CCFA854205D11B
:108F44001F492046FDF764FD0123B9E71D4920466A
:108F5400FDF75EFD00211022684606F03FFA022369
:108F64008DF800308123ADF804309DF80630694651
:108F740043F0010330468DF80630FFF70DFE08B1CB
:108F8400FEF772F898F80030002BCAD10E4B13216B
:108F94001888FFF7F3FDC1E750FC020080FC0200D3
:108FA40067070300EC4000207C0703008841002091
:108FB400AC070300FA3F002000410020B107030082
:108FC400C3070300D5070300D2330020BD410020AE
:108FD40008B503784BB9054B3B211888FFF7CEFD44
:108FE40018B1BDE80840FEF73FB808BDD2330020F1
:108FF400022810B522D1134B134C1449E41AE40887
:10900400240444F003042046FDF702FD104B1B78B2
:10901400B3B9FEF777FB08B1FEF726F84FF0A0438B
:109024000122C3F80C25FEF705F808B1FEF71CF879
:1090340001F07AFD07492046FDF7EAFC012010BD46
:109044000020FCE750FC020080FC0200DF07030064
:10905400FA3F00200C080300032807D14FF0804397
:10906400A922C3F820250020FEF7CCBF70470000DA
:1090740010B501F00FFE184C184B2060024618483A
:109084001B1ADB081B0443F00300531C04D1BDE886
:1090940010401449FDF7BCBC1349FDF7BDFC134B4C
:1090A40020681A68042AC4BF00221A601968104A8A
:1090B40042F8210001311960D2E900310B44916872
:1090C4000B44D16812690B441344052293FBF2F359
:1090D400084A136010BD00BF1841002080FC020044
:1090E40050FC02003B0803004E080300204100200E
:1090F400244100201441002030B51D4B04461D4876
:109104001B1ADB081B0443F003001B4B1D7885B0BE
:10911400FDB11A49FDF77CFC194B01221A7000219C
:109124001022684606F05AF902238DF80030002315
:10913400ADF804309DF80630694643F0010320463B
:109144008DF80630FFF728FD08B1FDF78DFF05B057
:1091540030BD0C49FDF75CFC10222946684606F038
:109164003DF902238DF8003040F20313E0E700BF1D
:1091740080FC020050FC0200BD4100205A0803009C
:10918400FA3F00205A07030030B5254B0446254812
:109194001B1ADB081B0443F00300234B1D7885B026
:1091A400FDB12249FDF734FC00211022684606F087
:1091B40015F902238DF800300023ADF804309DF832
:1091C4000630694643F0010320468DF80630FFF768
:1091D400E3FC08B1FDF748FF0020FFF731FD05B0BF
:1091E40030BD1349FDF714FC29461022684606F0E9
:1091F400F5F802238DF8003040F20313ADF8043083
:109204009DF80630694643F0010320468DF8063088
:10921400FFF7C2FC0028E2D0FDF726FFDFE700BF1E
:1092240080FC020050FC0200BD41002070080300D5
:109234005A07030030B51F4B04461F481B1ADB08AE
:109244001B0443F003001D4B1D7885B025B31C4D52
:109254001C492A68FDF7E0FB1B4B2A681A601B4B6C
:1092640001221A7000211022684606F0B7F8022382
:109274008DF800300023ADF804309DF806306946BF
:1092840043F0010320468DF80630FFF785FC08B152
:10929400FDF7EAFE05B030BD0D49FDF7B9FB10221C
:1092A4002946684606F09AF802238DF8003040F209
:1092B4000313E0E780FC020050FC0200BD410020E3
:1092C40014410020810803001C410020BC410020FF
:1092D4005A070300F0B5334B334CE41A334BE4081C
:1092E4001F7897B02404064644F0030409AD002F08
:1092F40045D000272E492046FDF78AFB2E22394609
:109304000AA8099706F06AF82A4B2B4A1B680393AC
:109314002A4B1B6802932A4B1B680193294B1B6839
:109324000093294B32211B68284605F07CFF284610
:1093340006F0D0F82E23024624492046FDF775FB9B
:109344003946102205A806F049F8012328468DF86D
:109354001430ADF8187006F0BDF89DF81A30ADF869
:109364001E0043F001038DF81A30089505A9304614
:10937400FFF712FC08B1FDF777FE17B0F0BD1449F2
:109384002046FDF745FB39461022284606F026F80C
:1093940001238DF824304FF48173ADF82830294629
:1093A400E5E700BF50FC020080FC0200BD41002044
:1093B4008E0803005C410020A308030058410020EC
:1093C400B8410020B0410020B4410020CC08030083
:1093D4005A07030070B5364B364CE41A364B1B78EB
:1093E400E4082404012B88B00646154644F003041F
:1093F4004ED928220021314805F0F0FF05F10C0177
:109404006A892E4805F023FF2D492C4806F03BF8C5
:1094140078B904A8FFF7ACFB9DF8113001939DF8CF
:1094240012300093274A9DF813302748232105F072
:10943400FAFE112321488DF80C3006F04BF81F4931
:1094440082B203A8FFF7A2FB08B1FDF70DFE6B89FA
:109454001A4A1E492046FDF7E8FA102200210DEBB6
:10946400020005F0BBFF02238DF810300023ADF895
:1094740014309DF8163004A943F0010330468DF8EA
:109484001630FFF789FB08B1FDF7EEFD08B070BD9B
:109494000F492046FDF7BCFA102200210DEB020013
:1094A40005F09CFF02238DF8103040F20313DEE731
:1094B40050FC020080FC0200BD41002060410020FD
:1094C400FC080300870B0300654100200209030028
:1094D4005A07030070B52D4B2D4CE41A2D4B1B7805
:1094E400E4082404012B86B00546114644F0030425
:1094F4003CD901220C310DF1070005F046FF264945
:109504009DF80720254E2046FDF786FA9DF8072092
:1095140032604FF0A04312F0040F4FF4005215BF15
:10952400C3F80C25C3F808251D491E492046FDF73C
:109534006FFA306801F066FC1022002102A805F0E1
:109544004DFF02238DF808300023ADF80C309DF850
:109554000E3002A943F0010328468DF80E30FFF7C0
:109564001BFB08B1FDF780FD06B070BD0E49204617
:10957400FDF74EFA1022002102A805F02FFF022366
:109584008DF8083040F20313DFE700BF50FC0200FF
:1095940080FC0200BD410020180903005C4100204A
:1095A4002A0903003B0903005A0703002DE9F0438D
:1095B400394B3A4CE41A3A4BE4081E78240485B03B
:1095C400054644F00304002E54D0518902F10C00E6
:1095D40005F066FE05F0C9FE3C28024645DC00287D
:1095E40046DC012287272F4E2F4932602046FDF7A3
:1095F40013FA2E48FEF776F808B1FDF735FD336807
:10960400CBB14EF6602159434FF400404FF4FA7841
:109614004FF00009E0FB01894FF47A7200234046C1
:10962400494605F0E1FB002201462048FEF712F806
:1096340008B1FDF719FD10220021684605F0CEFEA1
:1096440002238DF80030ADF804709DF806306946A9
:1096540043F0010328468DF80630FFF79DFA08B160
:10966400FDF702FD05B0BDE8F0833C228627BAE78A
:109674000027B8E70E492046FDF7CAF91022314603
:10968400684605F0ABFE02238DF8003040F2031368
:10969400ADF80430D9E700BF50FC020080FC0200A2
:1096A400BD410020B84100204C0903008C4000203B
:1096B4005A0703002DE9FF413A4B3B4CE41A3B4B5C
:1096C400E4081D782404064644F00304002D57D012
:1096D400518902F10C0005F0E3FD05F046FE41F26C
:1096E40088339842054644DCC72846DCC8254FF039
:1096F40087082F4A2F4F12783D60DAB12E48FDF7C4
:10970400F1FF08B1FDF7B0FCD7F800C04FF4FA70D0
:109714004FF4004700214FF47A720023E7FB0C0159
:1097240005F062FB002201462348FDF793FF08B1D0
:10973400FDF79AFC21492A462046FDF76DF91022CF
:109744000021684605F04AFE02238DF80030ADF88A
:1097540004809DF80630694643F0010330468DF8D5
:109764000630FFF719FA08B1FDF77EFC04B0BDE836
:10977400F0811D464FF08608BBE74FF00008B8E7BC
:109784000F492046FDF744F910222946684605F0A2
:1097940025FE02238DF8003040F20313ADF80430A7
:1097A400D7E700BF50FC020080FC0200BD4100204E
:1097B40010400020B0410020AC40002061090300AB
:1097C4005A0703002DE9FF413A4B3B4CE41A3B4B4B
:1097D400E4081D782404064644F00304002D57D001
:1097E400518902F10C0005F05BFD05F0BEFD41F26C
:1097F40088339842054644DC3D2846DC3E254FF03C
:1098040087082F4A2F4F12783D60DAB12E48FDF7B2
:1098140069FF08B1FDF728FCD7F800C04FF4FA70CF
:109824004FF4004700214FF47A720023E7FB0C0148
:1098340005F0DAFA002201462348FDF70BFF08B1D0
:10984400FDF712FC21492A462046FDF7E5F81022CF
:109854000021684605F0C2FD02238DF80030ADF802
:1098640004809DF80630694643F0010330468DF8C4
:109874000630FFF791F908B1FDF7F6FB04B0BDE837
:10988400F0811D464FF08608BBE74FF00008B8E7AB
:109894000F492046FDF7BCF810222946684605F01A
:1098A4009DFD02238DF8003040F20313ADF804301F
:1098B400D7E700BF50FC020080FC0200BD4100203D
:1098C40010400020B4410020CC4000209009030047
:1098D4005A070300F0B5284B284CE41A284BE40837
:1098E4001F78240485B00646154644F003049FB34C
:1098F4002449204605F10C07FDF78AF86A893946A0
:109904002046FDF7B9F8282200211F4805F066FD1E
:109914006A891D48394605F09AFC1B4A1B492046B2
:10992400FDF77AF810220021684605F057FD02235E
:109934008DF800300023ADF804309DF806306946F8
:1099440043F0010330468DF80630FFF725F908B1DE
:10995400FDF78AFB05B0F0BD0D492046FDF758F828
:1099640010223946684605F039FD02238DF800308F
:1099740040F20313DFE700BF50FC020080FC02004A
:10998400BD410020BB09030088410020D209030027
:109994005A070300FDF768BB00214FF0A0430222E1
:1099A40001F5E07001311F2943F82020F8D103218B
:1099B4000120C3F80017C3F80C05C3F85C27184846
:1099C400C3F81827C3F82027C3F81427C3F81C27A3
:1099D400C3F85027C3F834171022C3F86017C3F82C
:1099E40010171049C3F80C254FF08072C3F80825EE
:1099F400401A4FF400520C49C3F808250968C008FE
:109A040049074FEA00404ABF08490949C3F80825F5
:109A140040F0030058BFC3F80C25FCF7F9BF00BFA2
:109A240080FC020050FC02005C4100202A09030073
:109A34003B0903002DE9F0411D4E1E4F337883424C
:109A440080460D4602D13B788B422FD01A4C1B4BDB
:109A5400E41AE408240444F00304B8F1000F16D017
:109A640017492046FCF7D4FF01233370DC21402042
:109A740000F0F8FD9DB113492046FCF7C9FF01230E
:109A84003B70DC21BDE8F041422000F0EBBD0E4903
:109A94002046FCF7BDFF86F800804146E7E70B4906
:109AA4002046FCF7B5FF3D702946EBE7BDE8F081A1
:109AB400134000201140002080FC020050FC0200F2
:109AC400E3090300040A0300F3090300180A03006E
:109AD4004FF0A0430122C3F80C25034B1978034B24
:109AE4001878FFF7A7BF00BF1240002014400020E1
:109AF40073B5184B184C1949194EE41AE408240498
:109B040044F003042046FCF783FF032000F066FDC5
:109B14000190019D15F0020510D012492046FCF772
:109B240077FF00210120FFF785FF002301220E4962
:109B3400308802B0BDE8704001F066BC0B49204695
:109B4400FCF766FF01212846FFF774FF01232A462C
:109B5400EDE700BF50FC020080FC02002D0A030068
:109B6400D23300203D0A0300243F00205A0A030098
:109B7400F7B5914D2B680446FBB19048FDF7B2FD53
:109B840008B1FDF771FA2B684EF6602159434FF482
:109B940000404FF4FA760027E0FB01674FF47A7235
:109BA40000233046394605F01FF900220146834858
:109BB400FDF750FD08B1FDF757FA4FF0A04301221D
:109BC400C3F808257E4B1A787E4B1A707E4B002111
:109BD4001A787E4B08461A70FFF72CFF7C48002247
:109BE40040F28F21FDF736FD08B1FDF73DFA2388D9
:109BF4003B2B00F0CA8014D8132B00F0B18006D898
:109C0400102B58D0112B00F0838003B0F0BD212B12
:109C1400FBD10023A088ADF8043001A9FEF7BAFFF8
:109C2400A5E0522B00F0A980562B00F0AE80502BFB
:109C3400EBD1684BE288DB889A42E6D1238A022B77
:109C4400E3D104F1120003F012FA634B02461870D8
:109C54006248634B1B1ADB081B0443F00300002A11
:109C640000F098805F49FCF7D3FE5F4B1D684FF40A
:109C740000444FF4FA7000214FF47A720023E4FB9D
:109C8400050105F0B1F8002201465848FDF7E2FC51
:109C940008B1FDF7E9F9564B1D684FF4FA7000213D
:109CA4004FF47A720023E4FB050105F09DF80022CD
:109CB4000146504829E0494B49484F49C01AC00859
:109CC400000440F00300FCF7A3FE4C4BA1884C4871
:109CD400198003F0CBFB08B1FDF7C6F92B68002B04
:109CE40093D04EF6602159434FF400404FF4FA7478
:109CF4000025E0FB01454FF47A72002320462946F3
:109D040005F072F801462D480022FDF7A3FC2EE071
:109D14003C4B364800221A70FDF7E4FC08B1FDF70D
:109D2400A3F93448FDF7DEFC08B1FDF79DF923489B
:109D3400FDF7D8FC08B1FDF797F900F0D7FF274BE2
:109D440027483149C01AC008000440F00300FCF75A
:109D54005FFE2A4B4FF6FF721A80FEF763FF54E74B
:109D64002648002300881A468521FEF711FF0028A3
:109D74003FF44BAFFDF778F947E7204800231A4634
:109D840019460088FEF70AFFF1E7A0881321FEF7C1
:109D9400F5FEECE71D49FCF73BFE1448FDF7A2FC79
:109DA40008B1FDF761F91348FDF79CFC08B1FDF714
:109DB4005BF900F09BFF28E7B84100208C400020AD
:109DC40013400020144000201140002012400020C5
:109DD4006C400020404000201040002050FC020055
:109DE40080FC0200920A0300B4410020CC40002011
:109DF400B0410020AC4000207B0A0300D233002095
:109E040034400020BD410020850A0300B00A03004D
:109E1400162810B50C462CD11848194BC01AC00886
:109E2400000440F0030089B11649FCF7F1FD16481F
:109E340000224FF40041FDF70DFC08B1FDF714F9C1
:109E440000210120BDE81040FFF7F4BD0F49FCF7E5
:109E5400DFFD0F480F4900882346224601F0D4FA5B
:109E64000948FDF73FFC08B1FDF7FEF8002108465C
:109E7400E8E7BDE81040FDF7F7B800BF80FC02003A
:109E840050FC0200CE0A03004C400020E00A03000C
:109E9400D2330020243F00204FF080531A6E4271C9
:109EA4001A6E120A02711A6E120CC2701A6E120E17
:109EB40082705A6E42705B6E1B0A0370704700001A
:109EC4002DE980484FF40041B5B00020FCF7EAFBCF
:109ED40008B1FDF7C9F8FCF71BFBFEF757F808B10A
:109EE400FDF7C2F8A54BA64C0293A64BA64AA74978
:109EF400A74801930094A74B00F06EFDFFF74CFDBB
:109F0400FDF766FB0F9408B1FDF7AEF8A24AA3482B
:109F14000121FDF78DFB08B1FDF7A6F8A04AA14881
:109F24000121FDF785FB08B1FDF79EF89E4A9F4885
:109F34000121FDF77DFB08B1FDF796F89C4A9D4889
:109F44000021FDF775FB08B1FDF78EF89A4A9B488E
:109F54000021FDF76DFB08B1FDF786F800F0A0FBCA
:109F6400974841F69A120121FCF7FAFF08B1FDF770
:109F74007BF8FDF749F808B1FDF776F802F058FAD6
:109F840008B1FDF771F8002324A90120249302F0FD
:109F940017FB08B1FDF768F824A802F0E3FB08B149
:109FA400FDF762F800231AA88DF85830FEF7E0FD9B
:109FB4008449724805F067FA60B99DF869300193E5
:109FC4009DF86A300093804A9DF86B307F482321C6
:109FD40005F029F9694805F07DFA684982B216A8A6
:109FE400FEF7D4FD08B1FDF73FF84FF44860FEF7E3
:109FF400C9FD08B1FDF738F80822002124A805F0AE
:10A00400EDF9734A4FF0C87324A8CDE92423FEF771
:10A01400BBFD08B1FDF728F86E48002103F01EF9D6
:10A0240008B1FDF721F80024214628221AA8CDE919
:10A03400144405F0D3F9684B6848109411A911939E
:10A0440003F002FA08B1FDF70FF8654B109310A85E
:10A0540002F080F808B1FDF707F8624B14936248E8
:10A06400624B159314A901F0A7FB08B1FCF7FCFFA0
:10A074005F4B1A935F4B1B935F4B1C935F4B1D937A
:10A084005F4B1E935F4B1F935F4B20935F4B21935A
:10A094005F4B22935F48604B23931AA901F0B0FCF5
:10A0A40008B1FCF7E1FF5D4801F0DAFA08B1FCF70A
:10A0B400DBFF0021102216A805F090F901238DF88A
:10A0C4006530574840F2011316A9ADF8663001F027
:10A0D400D1F808B1FCF7C8FF4022002124A805F0FC
:10A0E4007DF9504924A802F0C6FF4F4926A802F082
:10A0F400C2FF12A8FFF7D0FE9DF84D3004939DF8DF
:10A104004C3003939DF84B3002939DF84A300193F1
:10A114009DF84930454A00930D219DF84830444844
:10A1240005F081F8424928A802F0A5FF41492CA86E
:10A1340002F0A1FF2AA8404902F09DFF012324A8B0
:10A144008DF8CC3001F096F908B1FCF78DFF3C2274
:10A15400002124A805F042F9384A02238DF89030F2
:10A1640052F8041B40F2016324A8ADF8923002F0C7
:10A17400DFFB002864D0FCF777FF61E0604100203A
:10A184005C41002088410020B8410020B0410020FB
:10A19400B44100205841002075900200A80B030030
:10A1A400918C0200A40B0300F59A0200980B0300A3
:10A1B400458C0200A00B0300D59A02009C0B0300FF
:10A1C400B8330020F50A0300870B03006541002023
:10A1D4005000A000FC3F0020258C020034400020E9
:10A1E400A58B02005D8E020018400020D998020061
:10A1F400399202008D910200C9970200B9960200BB
:10A20400B1950200A58D0200D9940200D9930200F1
:10A21400FD900200403F0020D992020040400020FF
:10A22400243F0020FB0A0300FF0A03000A0B03007B
:10A2340043410020230B0300050B0300C03300201F
:10A24400182200211AA805F0C9F800230122ADF84C
:10A2540074301B934FF480738DF86820ADF87C3014
:10A26400A749A8484FF4C8731AAA1C93FEF782FCA6
:10A2740008B1FCF7F9FEA34B6FF013021978012023
:10A28400FEF77EFC08B1FCF7EFFE1C22002124A897
:10A2940005F0A4F800234FF42022CDE92432ADF8D0
:10A2A4009E304FF420328DF8A030974B269229939C
:10A2B4000322964B8DF89C2024A82A9302F000FEDA
:10A2C40008B1FCF7D1FE0F9B186800F033FD1AA803
:10A2D400FFF7E2FD24A8FEF74BFC9DF891409DF8A2
:10A2E40093108B4B9DF892009DF895609DF86C80BF
:10A2F4009DF86BE09DF86AC09DF869B084EA010A94
:10A304008AF055021A709DF8942080EA020989F0B7
:10A3140073055D7084F036059D7080F04505DD7031
:10A3240081F06B051D7182F05E055D7186F0650537
:10A334009D719DF89650079585F04105DD719DF856
:10A344006D50089585F030051D7288F06E055D72BC
:10A354008EF021059D728CF05B05DD728BF03F055C
:10A364001D739DF8685085F05B075F73089F674015
:10A37400099787F068079F7380EA08070A9787F0B0
:10A384003307DF7381EA0E070B9787F033071F74D7
:10A3940082EA0C070C9787F03D075F7486EA0B0787
:10A3A4000D9787F027079F74079F6F400E9787F0DC
:10A3B4004E07DF74574B82F079025A71079A82F084
:10A3C4005E02DA71089A82F03B021A7288F0300257
:10A3D4005A728EF03C029A728CF03602DA728BF06A
:10A3E40030021A73099A82F026029A730A9A82F04A
:10A3F4003802DA730B9A82F035080C9A83F81080CD
:10A4040082F0320E84F05F0480F0200081F0440179
:10A4140085F024058AF0420A89F0390986F05E063F
:10A424009C70D87019715D7383F800A083F8019053
:10A434009E7183F811E00D9A3748384C3849394DEC
:10A4440082F0290C0E9A83F812C0241A82F0530762
:10A45400E408DF742404344B44F003041A682046EF
:10A46400FCF7DAFA314B32491A682046FCF7D4FA81
:10A47400304B31491A682046FCF7CEFA2F4B30494D
:10A484001A682046FCF7C8FA0F9B2E491A68204622
:10A49400FCF7C2FA20462C4A2C49FCF7BDFA214AA3
:10A4A4002B492046FCF7B8FAFEF7BCFB20462949A5
:10A4B400FCF7AEFA2046284A2849294CFCF7ACFAA6
:10A4C4004FF0A0431620D3F81015C1F38051FFF7C5
:10A4D4009FFC1D4E23785BB100232370214B009316
:10A4E400CDE90165154B134A10490F4800F0EAF90C
:10A4F400FCF732F90028EDD1FDF75EFDE9E700BF76
:10A50400C0330020D0330020D58F02009999020077
:10A51400EC4000200041002050FC020080FC0200BE
:10A524002A0B030060410020B4410020B041002008
:10A53400310B0300B8410020380B030058410020C0
:10A544003F0B0300460B0300884100204D0B030022
:10A55400560B03005F0B0300230B0300730B030074
:10A56400FA3F00205C41002041DF704710B50478B9
:10A57400012C0DD0022C18D0B4B90379012B03D1CE
:10A584000F4B1A780F4B1A700F4B01221A700BE005
:10A594000E4B0F480F49C01AC008000440F00300D6
:10A5A400FCF736FA084B1C7010BD084B08480A49E2
:10A5B400C01AC008000440F00300FCF729FAE3E7DE
:10A5C400BF410020BE410020C341002050FC0200D6
:10A5D40080FC0200AC0B0300DF0B030030B585B038
:10A5E400194B8DF80F0019481949C01AC008000406
:10A5F40040F003000025FCF70BFA164800950123F0
:10A604000DF10F02482103F0BDFD08B1FCF72CFD4C
:10A61400114C2570FFF7A8FF2378002BFAD00F4ABE
:10A624000C480123482103F0C8FD08B1FCF71CFDC8
:10A6340000232370FFF798FF2378002BFAD0084BF0
:10A64400187805B030BD00BF50FC020080FC020049
:10A65400140C03002C0C0300C3410020BF41002054
:10A66400BE4100201FB500248DF80C008DF80D109C
:10A6740009480094022303AA482103F083FD08B18A
:10A68400FCF7F2FC054B1C701C46FFF76DFF2378AA
:10A69400002BFAD004B010BD2C0C0300C3410020E1
:10A6A4001FB51A211922CDE900124FF0CC72029283
:10A6B400022200238DF80C202648274AADF80D30DD
:10A6C40069468DF80F3003F07DFA08B1FCF7CCFC35
:10A6D400224803F009FC00212820FFF7C3FF0E21C4
:10A6E4003120FFF7BFFF08210846FFF7BBFF012118
:10A6F4004420FFF7B7FF1C214020FFF7B3FFFF21E1
:10A704004120FFF7AFFF1C214220FFF7ABFFFF21E1
:10A714004320FFF7A7FFA1212120FFF7A3FFC121B9
:10A724002220FFF79FFF10212320FFF79BFFFD212D
:10A734002420FFF797FFFC212520FFF793FF5021EA
:10A744002620FFF78FFF50212720FFF78BFF05B04E
:10A754005DF804FB280C030071A502002C0C030017
:10A7640041DF704707B5042301460DEB03020B4894
:10A77400FDF74EFD80B1FDF7DDFC094B09490246AA
:10A7840009481B1ADB081B0443F00300FCF744F9D7
:10A79400002003B05DF804FB0198FAE79833002029
:10A7A40080FC0200380C030050FC0200436810B423
:10A7B4005BB11548154B16495DF8044BC01AC00827
:10A7C400000440F00300FCF723B90378012B04D004
:10A7D400022B10D05DF8044B70470C4B0A4C0269F5
:10A7E4000C49E41AE4088368240444F003005DF887
:10A7F400044BFCF71AB9054B034C02690649E41AE9
:10A80400E40883682404F0E780FC020050FC0200A2
:10A81400590C03009A0C0300CE0C030008B50A4639
:10A82400282301460948FDF7F3FC70B1FDF782FCCB
:10A83400074B0849024608481B1ADB081B0443F06F
:10A844000300BDE80840FCF7E7B808BD98330020D2
:10A8540080FC0200380C030050FC020010B50446D2
:10A864002046FDF747FE00B910BDFFF779FFF7E773
:10A8740013B51346002200920A4601460D48FDF71F
:10A8840039FD044678B1FCF7EFFB2046FDF752FC96
:10A89400094B0A4902460A481B1ADB081B0443F009
:10A8A4000300FCF7B9F8034802B0BDE81040FFF715
:10A8B400D5BF00BF9833002080FC0200040D0300C4
:10A8C40050FC02002DE9F8430C4690460146042250
:10A8D40030480A9D1F46DDE9089604F056FD04221F
:10A8E40041462D4804F051FD042239462B4804F01A
:10A8F4004CFD214604222A4804F047FD042249461F
:10A90400284804F042FD2848002301224FF448312E
:10A91400FDF786FD044678B1FCF7A6FB2046FDF75B
:10A9240009FC224B2249024622481B1ADB081B045D
:10A9340043F00300FCF770F81B48FFF78FFF1E4934
:10A9440004224FF44830FFF793FF12491B480422B6
:10A95400FFF78EFF10491A480422FFF789FF0F49B9
:10A9640018480422FFF784FF0D4917480422FFF713
:10A974007FFF0C4915480422FFF77AFF314614483B
:10A984002822FFF775FF29461248BDE8F84328221C
:10A99400FFF76EBFD0410020D4410020C441002005
:10A9A400CC410020C84100209833002080FC0200E4
:10A9B400260D030050FC0200D833002004200300BD
:10A9C400082003000C2003001020030014200300BF
:10A9D40018200300402003002DE9F84F3C4CDDF81B
:10A9E40030901E463B4BE41AE408240444F003046C
:10A9F40080460D46204638491746DDE90ABAFCF779
:10AA040007F8364936480022FDF79EFB08B1FCF7EB
:10AA14002BFB4FF010234FF448305B694FF0805309
:10AA24001A695B69FFF79EFEBB282CD02D4920468E
:10AA3400FBF7EEFF2C4904224FF44830FFF718FFD0
:10AA44002A492B480422FFF713FF2A492A480422E3
:10AA5400FFF70EFF29492A480422FFF709FF294975
:10AA640029480422FFF704FF284929480422FFF754
:10AA7400FFFE284928482822FFF7FAFE27492848DC
:10AA84002822FFF7F5FE27492046FBF7C1FF1848A7
:10AA9400FFF768FEC8F800001748FFF763FE386048
:10AAA4001748FFF75FFE30601748FFF75BFE28602A
:10AAB4001748FFF757FE5146CBF800001648FFF73A
:10AAC400ADFE49461648BDE8F84FFFF7A7BE00BFE4
:10AAD40080FC020050FC02004A0D0300D405030070
:10AAE40098330020790D0300DC3300203834002033
:10AAF400042003003C34002008200300D433002049
:10AB04000C2003003434002010200300E033002024
:10AB1400142003000C34002018200300E433002028
:10AB240040200300A90D030008B50A480A4B0B494D
:10AB3400C01AC008000440F00300FBF769FF08488E
:10AB44000021FDF733FB18B1BDE80840FCF78CBACF
:10AB540008BD00BF80FC020050FC0200C50D0300CC
:10AB64009833002041DF7047F0B506784178857846
:10AB7400C278047940797304B70407F4800703F4B6
:10AB840000033B4300F001073B43F70407F40017BD
:10AB940036053B4306F4801633430E0406F4803630
:10ABA40033436E0206F400463343AE0206F4804695
:10ABB4003343EE0206F400562D03334305F4805567
:10ABC4002B43150205F480752B43650005F08005C1
:10ABD4002B43A50005F040052B43E50005F02005B7
:10ABE40024012B4304F010042343C41004F008048C
:10ABF4002343841004F004044010234300F00200B3
:10AC04000343480300F400200343880300F4802036
:10AC1400C903034301F400310B43510101F4006102
:10AC24000B43910101F48061D0010B4300F40070E7
:10AC340018431B0248BF40F07F40F0BD4FF0A043D3
:10AC440010B5D3F810350D4C13F4006F10D10C4B24
:10AC54000C480D49C01AC008000440F00300FBF77B
:10AC6400D7FE4FF0FF332360084B01221A7010BD4A
:10AC74000748FFF779FF2060F6E700BFE0410020B6
:10AC840050FC020080FC0200F70D0300E4410020A8
:10AC9400D841002030B5104D104C85B0062200215B
:10ACA400284604F09BFB0E4B00930823CDE90135A5
:10ACB400002206230B4822706946039303F056FED4
:10ACC40008B1FCF7D1F9FFF74DFF2378002BFAD038
:10ACD400054B186805B030BDD8410020E441002080
:10ACE40040340020600E0300E04100201FB50D4BEE
:10ACF400009307230C4C01930C4B02930022062370
:10AD04000B4822706946039303F030FE08B1FCF748
:10AD1400ABF9FFF727FF2378002BFAD0002004B00B
:10AD240010BD00BF48340020E4410020D841002079
:10AD3400600E030030B5294B04460FCB85B06D4639
:10AD440085E80F00264A00924FF0805302220293B6
:10AD54008DF804200023234A2348ADF80C302946FB
:10AD640003F0BEFC08B1FCF77FF9FFF7BFFF14F056
:10AD7400030415D11D4B1E481E49C01AC008000407
:10AD840040F00300FBF744FE1B4BA0229A714FF0E6
:10AD9400A0430222C3F82C27C3F8302705B030BDE6
:10ADA400012C0ED0022CF2D1104B11481349C01AB9
:10ADB400C008000440F00300FBF72AFE0E4B80227B
:10ADC400E4E70A4B0A480E49C01AC008000440F0E0
:10ADD4000300FBF71DFE084BA822D7E74C0E030027
:10ADE400FF0C0BFF41AC02005C0E030050FC0200A0
:10ADF40080FC0200150E030040340020370E0300CF
:10AE0400260E030010F0030008B50DD1154B1648AB
:10AE14001649C01AC008000440F00300FBF7F8FD0F
:10AE2400134BA0229A7108BD01280ED00228FAD132
:10AE34000C4B0D480F49C01AC008000440F0030031
:10AE4400FBF7E6FD0A4B8022ECE7064B06480A496D
:10AE5400C01AC008000440F00300FBF7D9FD044BFE
:10AE6400A822DFE750FC020080FC0200150E03005C
:10AE740040340020370E0300260E03000369C16826
:10AE84008B429DBF8268D21802F1FF3203F1FF3377
:10AE940094BF501A581A70472DE9F843D0E9029428
:10AEA4000546A9EB04084068904520440F46144425
:10AEB40004D904F06AFAEC60BDE8F8834246A4EBD6
:10AEC400090404F062FA6868224607EB0801F0E717
:10AED4002DE9F843C5680646894617464FF0000831
:10AEE4003469B3687068A54228BFE418013C621B4A
:10AEF4005C1BBC4228BF3C46944228BF14464946CA
:10AF04002844224604F041FAB3682544AB4208BF02
:10AF140000253F1BA044A144F560E1D14046BDE8B3
:10AF2400F883000010B5114C114AA2610223C4E950
:10AF34000433104BE361A2644FF480630E4A0F495B
:10AF44002362E26400231022E01DA3626362E362D1
:10AF5400A3656365E365226504F073FA0849204636
:10AF640004F06FFA2023A37110BD00BFE841002054
:10AF74006C0E03007042002060420020750E030036
:10AF8400790E0300F8B5184C182300FB033503FBB6
:10AF940000402544C46A012C0F4616460FD0022CEB
:10AFA4001AD0F4B92846FFF769FF864205D832461D
:10AFB40039462846FFF770FF34462046F8BD284638
:10AFC400FFF75CFF8642344628BF044622463946D2
:10AFD4002846FFF761FFF0E72846BDE8F840FFF791
:10AFE40077BF0024E9E700BFE8410020FFF79ABFDC
:10AFF400A8DF7047B0DF704762DF704770B5037831
:10B004008CB0002B40F0988040680121B0F90040DA
:10B0140003F044FA08B1FCF727F84FF4167214FB56
:10B0240002F2002AB8BF02F2FF32921202EB42028D
:10B034005400A4B2204603F0C3FE48A3D3E900237E
:10B0440003F028FD3D4B3E4D002203F0BFFD03F00D
:10B05400A3FE83B23B482D1AED082D0445F00300EE
:10B06400A3F648520621384D92FBF1F28DF80B20DD
:10B07400D2B2364900922246FBF7E1FC344C2968EF
:10B08400C888218888421DD11022002103A804F019
:10B09400A5F901238DF80C30ADF816309DF8123067
:10B0A40043F001038DF812300DF10B030693294B85
:10B0B40000221888ADF8102003A9FFF79BFF08B100
:10B0C400FBF7D2FF2D682388EA899A422ED1002407
:10B0D4001022214608A8079404F080F96B7E01939E
:10B0E4002B7E1D4A009307AE9DF80B301421304689
:10B0F40004F099F82146102203A804F06FF9012303
:10B104008DF80C300823ADF816309DF81230ADF8E8
:10B11400104043F001038DF812300E4B0696188848
:10B1240003A9FFF767FF08B1FBF79EFF03F088FA56
:10B1340000212820FFF796FA0CB070BD0000F43F00
:10B1440080FC020050FC020094460020800E0300A4
:10B154009A46002098460020B50E0300666666668F
:10B16400666612401FB51549154803F0FBF808B18F
:10B17400FBF77AFF134A10685168127A01AB03C3D4
:10B1840001A900201A7003F02FF908B1FBF76CFF36
:10B194000D48012103F082F908B1FBF765FF0B4864
:10B1A400012103F07BF908B1FBF75EFF03F0CAF954
:10B1B40008B1FBF759FF05B05DF804FB01B00200CC
:10B1C400EC0E0300D30E03007046002072460020EC
:10B1D40008B5FFF7C7FF064B06480749C01AC00861
:10B1E4000004BDE8084040F00300FBF711BC00BFB9
:10B1F40050FC020080FC0200C20E030038B5054674
:10B204000C4600292DD000282BD00388512B28D19F
:10B214008379012B25D10289CB889A4211D103214C
:10B224002820FFF71FFA00220E4840F6CD41FCF714
:10B2340011FA0D4BAA881A800C4BE2881A800C4B29
:10B244001C602A89E3899A420BD103212820FFF745
:10B2540009FA054BAA881A80044BE2891A80044B28
:10B264001C6038BD74460020984600209A46002091
:10B27400944600202DE9F0410F4692B0054600287F
:10B2840000F0B380002900F0B080594A59480021E9
:10B29400FCF7CEF908B1FBF7E7FE3B682B603B797E
:10B2A400EB7600232B83012041F60F032A1D01A90D
:10B2B4008DF80600ADF80430FFF79AFE0446002826
:10B2C40040F08F804C4B02AA03F1100C164618680C
:10B2D4005968144603C4083363452246F7D105F17F
:10B2E4001A013046FFF788FE0446002879D1DFF8BA
:10B2F400148101461022012606A88DF8036004F08B
:10B304006DF84046CDF81C8004F0E4F8ADF8180060
:10B31400404604F0DFF82146ADF81A0020220AA8BE
:10B324008DF8246004F05AF842F61923ADF8283059
:10B334004FF001130B930DF103030C939DF835307B
:10B34400A8888DF8376043F002038DF83530BB7B55
:10B354008DF83B307B7B8DF83930AA1D06AB0AA9EA
:10B36400109301F091FE044600283AD1234F014680
:10B37400102206A804F032F83846079704F0AAF819
:10B38400ADF81800384604F0A5F82146ADF81A00C7
:10B3940020220AA88DF8246004F020F847F632230E
:10B3A400ADF82830AB7E8DF82A309DF83530A8886A
:10B3B4008DF83C4043F002038DF8353006AB109312
:10B3C4004FF008130B9305F10E020D4B8DF8396005
:10B3D4000AA98DF83B608DF837600C9301F054FE98
:10B3E4000446204612B0BDE8F0810E24F9E700BF00
:10B3F400D5B10200F00E0300DC0E0300703400200F
:10B40400B03400204F34002019B10A764B76002066
:10B4140070470E207047A8DF70470000F0B507465C
:10B4240089B014461E460D4611B90846FBF71CFEAA
:10B4340014B92046FBF718FE20220021684603F0C9
:10B44400CDFF9DF80D300E9AADF8007043F0020365
:10B454008DF80D30064BADF804401888ADF8064061
:10B46400694602958DF8116001F00EFE09B0F0BD39
:10B47400D446002030B587B041F60A03564AADF8E9
:10B484000C30044603A901208DF80E00FFF7C3FF1A
:10B494000546002847D12288002A47D1228952B183
:10B4A4004E4B0093E16894F83C3042F62420FFF7B9
:10B4B400B5FF002845D1228A52B1494B00936169F6
:10B4C40094F83C3042F62520FFF7A8FF002838D135
:10B4D400228B4AB1434B0093E16994F83C3042F625
:10B4E4002720FFF79BFF60BB228C4AB13E4B0093A1
:10B4F400616A94F83C3042F62620FFF78FFF00BBC8
:10B50400228D4AB1394B0093E16A94F83C3042F6FB
:10B514002820FFF783FFA0B9236BA3B9616B69BB34
:10B52400A36B002B37D1284607B030BD304B0093B6
:10B53400616894F83C3042F62920FFF76FFF002839
:10B54400ACD00546EFE7D3E9001204918DF814203E
:10B554009B688DF815301A0A1B0C8DF81730254B93
:10B564008DF816200093082294F83C3004A942F682
:10B574002320FFF753FF0028D0D0E2E71E4B0A79BF
:10B584000093096894F83C3042F62A20FFF746FFFE
:10B594000028C5D0D5E71A788DF810205A888DF880
:10B5A4001120120A8DF812209A888DF81320120A9D
:10B5B4008DF81420DB888DF815301B0A8DF81630B1
:10B5C4000E4B0093072294F83C3004A942F6502015
:10B5D400FFF724FFB5E700BFD4460020B44600209F
:10B5E400CC460020A44600209C460020D6460020DD
:10B5F400AC460020DE460020C4460020BC460020A5
:10B60400A8DF7047AEDF704762DF70470388532BB3
:10B614000AD0562B12D0392B17D10C480C4B0D499C
:10B62400C01AC008000405E00848094B0A49C01ABA
:10B63400C008000440F00300FBF7EAB90348044BD8
:10B644000649C01AC0080004F4E7704780FC0200F1
:10B6540050FC0200090F0300F40E0300160F030050
:10B66400F0B5314B93B006AA054603F11007164610
:10B6740018685968144603C40833BB422246F7D1FC
:10B6840005F10A013046FFF7BFFF0446002848D100
:10B69400AB7A8DF806302A4643F6E25301A901201D
:10B6A400ADF80430FFF7ACFF0446002839D11F4E33
:10B6B40002AF01461022384603F090FE304603964E
:10B6C40003F008FFADF80800304603F003FF01263D
:10B6D4002146ADF80A0020220AA88DF8146003F070
:10B6E4007DFE47F67463ADF82830AB7A8DF82A30C6
:10B6F400BDF83430109723F44B532A4623F03F030C
:10B7040043F40053ADF8343032F8020B8DF839604D
:10B714004FF006130AA98DF83B600B9301F0B4FCBB
:10B724000446204613B0F0BD310F0300B9340020A5
:10B7340070B586B004460E46154606231022002135
:10B7440002A8ADF8063003F049FE02238DF80A3052
:10B754007388ADF8083002A90DF10603204605955B
:10B764000493FFF74FFF06B070BDA8DF704762DF98
:10B7740070470388512B37B504460D461AD1837997
:10B78400022B17D14B8800F108020089984205D199
:10B794004B691BB1A08801929847019A21896B8952
:10B7A400994207D1AB692BB1A088294603B0BDE803
:10B7B4003040184703B030BD2DE9F0410B684361B8
:10B7C4004B68836192B04C4B06AA054603F11007FF
:10B7D400164618685968144603C40833BB42224607
:10B7E400F7D105F112013046FFF7C1FF04460028E6
:10B7F4007ED1AB7C8DF806302A4647F2622301A93C
:10B804000120ADF80430FFF7B0FF044600286FD1E3
:10B814003A4E0146102202A803F0E0FD304603969A
:10B8240003F058FEADF80800304603F053FE01263D
:10B834002146ADF80A0020220AA88DF8146003F00E
:10B84400CDFD47F2EC43ADF82830AB7C8DF82A30BF
:10B854009DF83530ADF838602A4623F00A0343F0EA
:10B8640008038DF8353032F8020B8DF83A6002ABDC
:10B874004FF014170AA90B97109301F005FC044626
:10B88400B0BBDFF87C800146102202A803F0A6FDBD
:10B894004046CDF80C8003F01DFEADF8080040468C
:10B8A40003F018FE2146ADF80A0020220AA88DF8FC
:10B8B400146003F093FD47F2A463ADF82830AB7C29
:10B8C4008DF82A309DF835300B972A4623F00A0369
:10B8D40043F008038DF8353032F80A0BADF83860C0
:10B8E40002AB0AA910938DF83A6001F0CDFB04462F
:10B8F400204612B0BDE8F081410F03000A35002054
:10B90400FA340020A8DF704762DF704770B505463F
:10B914000C46002972D0002870D00388512B6DD1B9
:10B924008379022B5BD102894B889A4200F1080685
:10B9340004D14B6D13B18088324698472A896389B4
:10B944009A4205D1A36D1BB1A88832462146984777
:10B954002A89638A9A4205D1E36D1BB1A8883246CD
:10B96400214698472A89638B9A4205D1236E1BB1DD
:10B97400A8883246214698472A89638C9A4205D181
:10B98400636E1BB1A8883246214698472A89638D85
:10B994009A4205D1A36E1BB1A88832462146984726
:10B9A4002A89638E9A4205D1E36E1BB1A888324678
:10B9B400214698472A89638F9A4205D1236F1BB188
:10B9C400A8883246214698472A89B4F842309A42D8
:10B9D40005D1636F1BB1A888324621469847AB79DD
:10B9E400012B0BD12A89B4F84A309A4206D1A36FAD
:10B9F40023B1A8882146BDE87040184770BD0000F7
:10BA04000B682DE9F04F43654B6883658B68C3650C
:10BA1400CB6803660B6943664B6983668B69C366AF
:10BA2400CB6903670B6A43674B6A836793B0E94B3F
:10BA340006AA054603F11007164618685968144605
:10BA440003C40833BB422246F7D105F15201304604
:10BA5400FFF75AFF0446002840F0998295F85230C7
:10BA64008DF806302A4644F2323301A90120ADF89C
:10BA74000430FFF747FF0446002840F08882D64F81
:10BA840002AE01461022304603F0A8FC3846039764
:10BA940003F020FDADF80800384603F01BFD012734
:10BAA40021462022ADF80A000AA88DF8147003F08C
:10BAB40095FC45F6A453ADF8283095F852308DF82E
:10BAC4002A30BDF834308DF83C4023F43F7323F022
