:020000040002F8
:1060000000000120756302005D6302005F6302000F
:106010006163020063630200656302000000000028
:1060200000000000000000000000000067630200A4
:1060300069630200000000006B6302006D630200F0
:1060400089D602006F6302000DDB02009DDC0200B6
:106050003DE702006F63020089D90200EDE1020012
:106060006F6302006F6302006F6302006F630200E0
:106070006F6302006F6302006F6302006F630200D0
:106080006F6302009D7202006F6302006F63020083
:10609000397302006F63020055C502006F6302008E
:1060A0006F6302006F6302006F6302006F630200A0
:1060B0006F6302006F630200000000000000000038
:1060C0006F6302006F6302006F6302006F63020080
:1060D0006F6302006F6302006F6302000000000044
:1060E00000000000000000000000000000000000B0
:1060F00000000000000000000000000000000000A0
:10610000000000000000000000000000000000008F
:10611000000000000000000000000000000000007F
:10612000000000000000000000000000000000006F
:10613000000000000000000000000000000000005F
:10614000000000000000000000000000000000004F
:10615000000000000000000000000000000000003F
:10616000000000000000000000000000000000002F
:10617000000000000000000000000000000000001F
:10618000000000000000000000000000000000000F
:1061900000000000000000000000000000000000FF
:1061A00000000000000000000000000000000000EF
:1061B00000000000000000000000000000000000DF
:1061C00000000000000000000000000000000000CF
:1061D00000000000000000000000000000000000BF
:1061E00000000000000000000000000000000000AF
:1061F000000000000000000000000000000000009F
:10620000354936480A1A02D0072291438D4634494F
:1062100034480A1A06D00722914381F309880222E2
:1062200082F3148830483149314A00F044F831484B
:106230003149324A00F03FF831483249324A00F0E1
:106240003AF832483249334A00F035F83248334997
:10625000334A00F030F833483349344A00F02BF821
:1062600033483449344A00F026F83448344900228F
:1062700000F02CF833483449002200F027F8334866
:106280003349091A082902DB002202604160314AC1
:1062900090471F481F49884205D00268043003B464
:1062A000904703BCF7E700208646EC46002000211B
:1062B000294A9047FEE7884207D0521A05D0037852
:1062C00001300B700131013AF9D17047884202D098
:1062D00002700130FAE770470000012000E0002062
:1062E000000001200000012050180300AC33002002
:1062F00010360020D4630200D463020040FC020088
:1063000050180300AC330020AC33002084FD0200A1
:1063100084FD020084FD020084FD020084FD020071
:1063200084FD020084FD020084FD02004F1803007A
:10633000B41A03001036002010360020103600205A
:1063400018490020184900201C4900201C49002041
:106350001C6900209D6302007D9E0200FEE7FEE7AF
:10636000FEE7FEE7FEE7FEE7FEE7FEE7FEE7FEE705
:10637000704700BF1048804710484FF0070188431E
:1063800085460F4880470F48016841F4700101605D
:10639000BFF34F8FBFF36F8FFFF732BF0A480B4930
:1063A0000B4A884207D0521A05D0037801300B708F
:1063B0000131013AF9D170477163020000000120F8
:1063C000C588020088ED00E070FD020098330020CF
:1063D000AC3300200048704710490020704700008F
:1063E00007B5044B0093044A402300F032F803B091
:1063F0005DF804FBFD630200113600202DE9F8432F
:1064000089461446B2B10F4B0F4E0325002743F0C7
:106410000108224609EB0701002004F08BFD074428
:10642000241A48B933782BB14FF47A40C047013D64
:1064300002D13570BDE8F88301233370002CE8D118
:10644000F8E700BF90FD020010360020704704F00E
:10645000A5BDF0B595B01C46164608460D4601F0A0
:1064600057FD1A9B0D93CDE90864002423460822AA
:1064700005A928460A948DF82C400C9401F065FD7E
:10648000079B0293069B03939DF814308DF81140EF
:1064900003F00302012A1DD1BDF81440059EC3F389
:1064A000C203C4F383148DF81030A20008230EA990
:1064B000284601F04AFDC6F3952608AB0093224614
:1064C00002AB0EA9304600F0D9FB284601F024FDAE
:1064D00015B0F0BD022AF8D1BDF81640C3F3C203CF
:1064E000A4098DF810300827082C264628BF082656
:1064F0003B4632460EA9284601F027FDA41B08ABF7
:1065000002AA31460EA8374400F01CFC002CEBD147
:10651000DBE7000008B5FFF79AFF0421034800F00D
:106520001BFB034B01225A7108BD00BF60FD020036
:10653000AC330020037813F0040216D003F00303F9
:10654000012B03D0022B09D0012070470A68008874
:106550000232C0F3831002440A60F5E70B684288F8
:10656000023303EB92130B60EEE710467047000016
:106570002DE9F04F87B000230446851C0DF107007C
:106580000F4690468DF8073001F0D4F8454806686C
:106590003E60D0E90132134401339B1B824600F276
:1065A0001C4600F5836900F21447AB421BD300225E
:1065B000B8F1000F70D0052363F3070264F389126A
:1065C000DAF80010DAF808309DF807000B400333C2
:1065D0000D444AF82320CAF8005001F0CFF80120FA
:1065E00007B0BDE8F08F0121304601F0D9F94846E7
:1065F00001F0EFF9384601F0ECF9DAF80400DAF8C6
:1066000008B0029000EA0B0003300AEB800002A9F8
:10661000FFF790FF029B50BB0BEA03020AEB8202DA
:1066200003F1020CD2680392013303EA0B0B0AEB6D
:106630008B0B02F00302012ACDF808C0DBF80C1026
:1066400022D0022A16D08346384601F0C5F910B18F
:10665000029BCAF804305946304601F0A1F9DAE944
:1066600001231344DAF8002001339B1A9DE70BEA5B
:106670000300C9E7BDF80E309B0903334FEA114B05
:106680000CEB93030293DFE7BDF80C30C3F38313E5
:106690004FEA114B6344F5E7062363F3070264F303
:1066A0009F528DE7243700200B4B0C48FF2210B57A
:1066B0009A600022C3F81824C3E90022C3F8142406
:1066C00083F8202401F0DDFB044610B9044801F0F2
:1066D000E1FC204610BD00BF24370020DCFC020096
:1066E000B4FD020030B50A4C71B10A4A0A49121BC6
:1066F000D20800239A4201D1002030BD31F8235046
:10670000854202D00133F5E7034654F83300F4E73D
:10671000F0FC020060FD0200AC330020094B01399F
:1067200003EBC000032909D8DFE801F00A020406E0
:106730000420704700797047407970470020704707
:1067400002207047F0FC0200034BD3E90030C31A6B
:1067500058425841704700BF243700202DE9F043CC
:1067600087B0FFF7F1FF0646002840F0FB807E4D22
:10677000C5F81804BFF34F8F6868AC6802902040DA
:10678000033005EB800002A9FFF7D4FE029B18B18D
:10679000D5F81824002A5FD004EA0302991C0133BB
:1067A00005EB8202234005EB8303D268DB68049388
:1067B00002F00303022B0392029162D1BDF80E3066
:1067C0006A484FEA9318B8F1500FC14628BF4FF0FE
:1067D000500969F38F1309F10801ADF80E3001F08B
:1067E00068FB0746002800F0A88001F091FB03A990
:1067F00000230822384601F09EFB029924EA010694
:106800000136B600B14535D95FFA89F97EB3F6B2E3
:10681000A9EB0609214003315FFA89F4B146544ED1
:1068200005EB810108234A46384601F084FB36B166
:1068300009F1080322463146384601F07CFB029BF1
:1068400008F1030803EB98030293D5F81834002BE2
:106850004BD1D5F810445BE02A689A4204D86A60AC
:10686000304607B0BDE8F08304EA030088E74049FA
:106870003446D7E72140033108234A4605EB81011E
:10688000DAE7012B59D1BDF80C303848C3F3831136
:10689000062928BF062161F3891302318900ADF86A
:1068A0000C3001F006FB0746002846D001F030FB13
:1068B0000023082203A9384601F03DFB0026BDF85D
:1068C0000C20C2F38312B300964203F10803BCD23A
:1068D00002994A1C21400331029205EB81010422F6
:1068E000384601F028FB0136E9E7384601F014FB91
:1068F000FFF72AFF80F00100C6B2B1E7E3685B79D9
:1069000023B1236839461B6820469847E3681C6812
:10691000002CF3D1384601F0FFFA0DF107008DF895
:10692000074000F007FFD5F818340BB9029B6B60E5
:106930009DF8070000F022FFDAE7D5F8104454B9BB
:106940000C4B0D480D49C01AC008000440F002006D
:1069500000F06EF8CCE7236820469B689847E36810
:106960001C68ECE700267BE724370020DCFC0200F3
:1069700030370020F0FC020020FD0200C0FD0200C4
:106980002DE9F74F284C80460F46924601A9012277
:1069900018469B46D4F80890FFF7EAFD80B3019DA6
:1069A0000026A91C5E4506EB010233D100211F48D9
:1069B00000F0C0FF80F310006A1C02EA090204EB39
:1069C0008202000405EA0903033340EA1840D0605C
:1069D00014F8232068F3C50204F8232034F8232098
:1069E00066F3891224F8232054F8232067F39F22AA
:1069F00044F8232002F0F80242F0010204F82320B8
:106A000094F820341BB1FFF7A9FE0028FBD103B096
:106A1000BDE8F08F09EA020204EB82025AF8263040
:106A2000D3600136BEE700BF24370020403B002082
:106A300000231A46FFF7A4BF07B50123019201AA5C
:106A4000FFF79EFF03B05DF804FB07B5CDE9002317
:106A500002236A46FFF794FF03B05DF804FB1FB5FD
:106A6000CDE90123069B039301AA0323FFF788FFC7
:106A700005B05DF804FB7FB5CDE90123089B0393C6
:106A8000099B04930A9B059301AA0523FFF778FF4E
:106A900007B05DF804FB00002DE9F34780462C4C5D
:106AA000D01C8A46174601A900228008A568FFF776
:106AB0005FFDC8B3DDF80490A66809F102000190FB
:106AC00001362840361AB6000330B74204EB800086
:106AD00034D83A46514608F0AAFC00211D4800F07F
:106AE00029FF80F3100009F101032B4004EB83031D
:106AF0004FEA184242EA0042DA6005EA090303332A
:106B000004EB830214F8231068F3C50104F8231082
:106B1000518867F38F11518034F8232002F0380236
:106B200042F0020224F8232094F820341BB1FFF72E
:106B300015FE0028FBD102B0BDE8F0873246514671
:106B400008F075FCBA1B0AEB060104F10C00C2E761
:106B500024370020403B002030B50F49D1F81024E5
:106B6000002314463CB9C468237152B9C1F810041B
:106B70002260184630BDE46825799D4206D024681D
:106B8000F0E7D268116821601060F2E701330A2B48
:106B9000E7D14FF0FF33ECE724370020094A38B53E
:106BA0000123D2F8104482F820341D4604B938BDC0
:106BB000E3685D71236820465B689847E3681C685A
:106BC000F4E700BF24370020037A052B10B50C46EC
:106BD0000FD0437A23B1084A0849204600F05FFFEE
:106BE0000749204600F05BFF2046BDE8104000F05A
:106BF0004BBF002AF8D0F3E70BFE0200F40C0300B1
:106C0000E50D0300C38873B504460D4633B1144A3D
:106C100000921449144A284600F041FF217A0529C0
:106C20001CD0637A4BB1A088FFF778FD0F4B104959
:106C300053F82020284600F032FF227A0D4BA0881E
:106C400053F822600021FFF74DFD0B490346324601
:106C5000284602B0BDE8704000F021BF02B070BD10
:106C60000BFE020018FE020010FE0200D8FD02001A
:106C7000F40C03003CFE020030FE02002DE9F0435C
:106C800085B01F460C9D002306460C46904695F89D
:106C90000C902B7329463846FFF7B4FFB8F1060F66
:106CA00009D8DFE808F00412181F283340003146E5
:106CB000284600F0F4FE002229463846FFF784FFFC
:106CC00085F80C9005B0BDE8F0832268314628466F
:106CD00000F0E5FEEFE7D4E900233146284600F056
:106CE000DEFEE8E7A36800933146D4E90023284696
:106CF00000F0D5FEDFE7E3680193A3680093314617
:106D0000D4E90023284600F0CAFED4E723690293A1
:106D1000E3680193A36800933146D4E90023284631
:106D200000F0BDFEC7E76369039323690293E3683C
:106D30000193A36800933146D4E90023284600F06C
:106D4000AEFEB8E708292DE9F84F80460E461746F3
:106D50001C4636D8002593F80C901D731946104632
:106D6000FFF750FFDFF87CA0DFF87CB0AE422AD9F5
:106D700018F805205946204600F091FE0135082DEF
:106D8000F4D11649DFF864B0204600F088FE0025F3
:106D9000AE421DD918F805A0504608F09DF900280C
:106DA00014BF52462E225946204600F078FE013587
:106DB000082DEDD1012221463846FFF705FF84F862
:106DC0000C90BDE8F88F5146204600F068FED5E7EC
:106DD0000349204600F063FEE9E700BF06FE02001B
:106DE00004FE020002FE0200FCFD020008FE02009A
:106DF0002DE9F04F394E87B04FF00009384B1B7822
:106E00005FFA89F5AB4202D807B0BDE8F08F354B89
:106E1000D3F800A01AF835000124D6E9001EA0F12D
:106E20002002C0F1200304FA02F224FA03F3134310
:106E300004FA00FC009301EA0C030293009B0EEAA3
:106E400003030393DDE9022313430AEBC50B41D08F
:106E5000009B21EA0C012EEA0303C6E9001306F0A9
:106E600089FD1AF835502049A5F12002C5F120030B
:106E700004FA02F224FA03F31343D1E900C2AC404E
:106E8000134004EA0C0105930024C3B2CDE9003499
:106E9000009A0491C5F12003A5F1200122FA03F321
:106EA00002FA01F848EA03081346AB401F46DDE941
:106EB0000434444508BFBB420CD1DBF804304BB16D
:106EC0009BF801104A1E51425141081A414241416A
:106ED0002846984709F1010990E700BF103C0020BF
:106EE000E03B0020183C0020083C00202DE9F04148
:106EF0008046204800F002FCD0BB0125A8F1200408
:106F0000C8F1200325FA03F305FA04F41C431A4BD5
:106F1000D3E9001205FA08F501EA050602EA0407BA
:106F200056EA07001E461DD1404606F023FD134BCE
:106F3000D3E9001288B129432243C3E90012D6E9FC
:106F400000231C430E4B0B4819681543C6E9005437
:106F50000022BDE8F04100F08BBB21EA050122EAE6
:106F60000402EAE721EA050522EA0404C3E9005421
:106F7000BDE8F081E83B0020103C0020083C0020E8
:106F8000E43B0020042A2DE9F34105460C46164651
:106F90003AD906F009FCD8B11C4B1D491D601D4BA8
:106FA000DFF884801C701C4B00221E600023C1E9A6
:106FB00000231A49C1E90023013CE4B2002603275B
:106FC000FF2C0CD1164A1748002100F03FFB03E0CC
:106FD00006F0B0FB0028DFD002B0BDE8F08123B29C
:106FE00005EBC30201A992788DF8052015F833004E
:106FF0008DF8066042468DF8047006F0DFFB013C18
:10700000E4B20028DCD0E7E70720E5E7183C0020E1
:10701000083C0020E03B0020E43B0020103C002026
:10702000F16D0200A4FE0200ED6E020070B5084D85
:10703000084E00242B789C4201D3002070BD336899
:10704000012113F8340006F02DFC0134F2E700BFF3
:10705000E03B0020183C002070B5094D094E00248B
:107060002B789C4204D30848BDE8704000F046BB32
:10707000336813F8340006F05BFC0134F0E700BF1E
:10708000E03B0020183C0020E83B00201FB5002119
:10709000039001AA44F20100CDE9011100F030F89B
:1070A00005B05DF804FB000082B001238DF80730C5
:1070B0009DF80730114B1860596044F20101884275
:1070C0009A6012D044F20201884206D1DA60DA688E
:1070D00012889A61DA685268DA6172B69DF80730F0
:1070E000002BFBD162B602B070471A611A69926830
:1070F0005A611A6912689A611A69ECE71C3C00200F
:107100002DE9FF4106460F46154672B6FFF746FDCC
:10711000FFF724FB0028FBD1234B244CE41AE4089E
:1071200041F2010324049E4244F0010428D007D810
:10713000012E14D03A461E492046FFF77DFC12E08E
:1071400044F201039E421DD044F202039E42F1D15B
:107150002B886A6817492046FFF777FC03E0164939
:107160002046FFF765FC154B1B68DB0700D500BE0A
:107170002A463946304604B0BDE8F041FFF794BFD7
:107180000F49EDE7D5F80880404600F0C1FF2B68B5
:10719000029701936B6800930A49034642462046D2
:1071A000FFF769FC0849DBE7F0FC020020FD020064
:1071B0003BFF0200E7FE0200A8FE0200F0ED00E047
:1071C000C5FE020001FF020027FF0200094A5378B2
:1071D00091780133DBB2994208BF002311789942BC
:1071E0001FBF03705078182303FB002014BF043026
:1071F000002070473C3C002073B5054600240DF18B
:1072000007000E468DF8074000F094FA0DF10600D5
:10721000FFF7DCFF90B10670094B9DF80620456032
:107220005A709DF8070000F0A9FA24B9054B4FF4F5
:107230008012C3F80021204602B070BD0424F0E79C
:107240003C3C002000E100E0024B4FF43C6043F086
:107250000103184760FF020038B50C4B0C4C4FF48B
:107260000032C3F8802001254FF48033C4F848333E
:10727000C4F808336560FFF7E7FF064BA5600024FC
:107280001C60FFF7E1FF044B1C7038BD00E100E01B
:1072900000100140483E0020393E0020F8B51F4B49
:1072A0001F491B680025C1F84051C1F84451C1F87D
:1072B0004851C1F84C51C1F80051C1F804514BB3C9
:1072C000D1F8044517490968641A24F07F442F4611
:1072D0001A68A24209D8A41A15441A7CDE691AB1A8
:1072E0001F74D3E905209047AEB90F4A0F4B1178B0
:1072F0001B788B4205D10133DBB2022B08BF002380
:10730000137012780A4B43F822500A4B4FF4801244
:10731000C3F80021F8BD3346DAE700BF4C3E002039
:1073200000100140483E0020453E0020443E002021
:107330003C3E002000E100E02DE9F04FA04AA149C9
:1073400013780978A04D994285B03CD00133DBB267
:10735000022B08BF002313709C4912789C4B0F68C6
:1073600053F822003B1823F07F4300220B602B6868
:1073700016461446944613B942B12B6006E01968CC
:1073800081420ED902B12B60091A19604FF0010831
:107390002B68DFF844A201930027BEB9DFF840B2A2
:1073A00066E0401A0C44D968C3F800C0D3F81CE06A
:1073B00031B13A1922F07F42C3E90121DE611E4654
:1073C00001227346D7E70026B046E1E73446F66966
:1073D0007E4A63681268DFF80CC2A068991A21F02F
:1073E0007F41614500F2A5800144216001222274A1
:1073F0002A680023C4E90133E361002A40F0A28037
:107400002C60CAE75A1C9BF80210D2B291428BF84A
:10741000002004BF00228BF80020182202FB03B3D7
:107420001A799C68022A1CD0032A12D0012A1FD183
:10743000207CE8B9D3E90312A2605A69E2609A6934
:10744000644BA2611B78002B0CBF0B4603466360A4
:10745000BEE700222B681146002B66D142B12B609B
:1074600006E029680A468946002A59D10023237478
:107470009BF800309BF801209A42C3D12B682FB9AA
:10748000019A9A4202D1B8F1000F43D0002B73D079
:10749000D3F800A0504D4D4BD5F804751C68DFF8AB
:1074A00048813E1B98F8003026F07F4603369BB992
:1074B0004FF48033C5F84433C5F80433474B4FF4D9
:1074C00000324FF00109C3F880211A60C5F800901E
:1074D000FFF7BAFE88F80090B2452CBF5444A419B7
:1074E00024F07F44C5F84045D5F80435DB1B23F074
:1074F0007F43E41B033324F07F44A3420AD9D5F829
:107500000435C5F84035FFF79FFE344B4FF4003289
:10751000C3F800212F4B00221A7005B0BDE8F08F90
:1075200094422CD09146D2699EE719740122DB69FE
:1075300092E7D31A23F07F43834234BFC31A002358
:10754000236053E721681368994213D8591A1160D0
:10755000E26155E7091AD8691A4638B10346186836
:107560008842F7D3401A1860184613462160E0613C
:10757000DC6112E71346F2E7FFF76EFECAE74C45FF
:1075800011D1CB692B6073B9DFF840E00120CDE960
:107590000212CAF80800CEF800300E4B1870FFF740
:1075A00053FEDDE902121368D269C9F81C2012B13A
:1075B0001068034413602B68994218BF012755E7F0
:1075C000443E0020453E00204C3E0020483E002026
:1075D0003C3E0020383E00200010014000E100E069
:1075E0003C3C0020FEFF7F00393E002008B5FFF73D
:1075F00033FE104B0020152218809A700E4B186035
:107600000E4B18700E4B18700E4B4FF48012C021A9
:10761000C3F8802183F814131A6002F18042A2F5A6
:107620006F22C2F8080583F81113074BD2F804251E
:107630001A6008BD3C3C00204C3E0020443E002027
:10764000453E002000E100E0483E0020074B9B78CB
:107650004BB132B128B10368187C20B959745A6112
:107660007047072070470820704700BF3C3C00204F
:107670002DE9F7431E4FBB7805460E469046A3B34F
:1076800098B304292FD943697BB3437C0024012B91
:107690000DF107000CBF8946A1468DF8074000F0A8
:1076A00049F80DF10600FFF791FDD0B101230370F9
:1076B000104B4560D3F80435C0E90498C0E90236A0
:1076C0009DF806307B709DF8070000F057F824B94C
:1076D000094B4FF48012C3F80021204603B0BDE8E7
:1076E000F0830424EFE70724F7E70824F5E700BF59
:1076F0003C3C00200010014000E100E0064A927886
:107700003AB130B1426922B1002202740221FFF77E
:1077100073BD0820704700BF3C3C0020044B9B78A1
:107720001BB103210020FFF767BD0820704700BF91
:107730003C3C002070B5EFF3108672B60C4A94689A
:1077400001239CB993600B4B0B4DD3F8801029405B
:107750001160C3F88050D3F8841051604FF0FF32AD
:10776000C3F88420047006B962B670BD0370FAE7EE
:10777000503E002000E100E0FC06FFBD084B9A6887
:1077800010B55AB150B9EFF3108172B6054A1C68B2
:1077900014605C685460986001B962B610BD00BFA7
:1077A000503E002000E100E010B561B1B2FBF3F4FF
:1077B00003FB1424A4B244B9C0E90014846082819C
:1077C000C381204610BD0E20FCE70920FAE782B0F5
:1077D00050E8022FC188B2EB324F4FF0000317BFC1
:1077E00092B241EA014142EA014104E04268B2EB4F
:1077F000324F08BF012340E80212002AE8D18DF879
:1078000007309DF80730002B0CBF1120002002B07C
:10781000704737B550E8013F9DB2C489254484893B
:10782000A54228BF2D1B0489A54202BFBFF32F8F9D
:10783000002207E0C5EA030540E80154002CE9D125
:107840004FF001028DF803200193019B9DF8032066
:107850000B6002F0FF0322B10B880068184403B0EC
:1078600030BD1846FBE70A884B889A4209D150E898
:10787000012FC2EA024240E80123002BF7D1012088
:1078800070470020704737B550E8023F1FFAA3F554
:10789000C488A54202BFBFF32F8F00220DE0C48928
:1078A00025448489A54228BF2D1BC3EA054540E82D
:1078B0000254002CE8D14FF001028DF8032001930F
:1078C000019B9DF803200B6002F0FF0322B14B885F
:1078D0000068184403B030BD1846FBE70A884B889F
:1078E0009A4209D150E8022FC2EA224240E802231C
:1078F000002BF7D1012070470020704701F01F02D4
:107900004B090121914000EB830000F028B801F001
:107910001F0301229A404B0900EB8300D14300F082
:1079200034B84B0901F01F0150F82300C84000F0A3
:107930000100704750E8002F0B4640E8003C9CF0E7
:10794000000FF7D11046704750E8002F42EA0103BC
:1079500040E8003C9CF0000FF6D11046704750E81C
:10796000003F43EA010240E8002C9CF0000FF6D1F2
:107970001046704750E8002F02EA010340E8003C3F
:107980009CF0000FF6D11046704750E8003F03EA24
:10799000010240E8002C9CF0000FF6D11046704721
:1079A00050E8003F03EB010240E8002C9CF0000F80
:1079B000F6D11046704750E8003FA3EB010240E8C3
:1079C000002C9CF0000FF6D1104670470121FFF704
:1079D000BBBF0121FFF7C3BF0021FFF7CBBF10B52D
:1079E00090B1D0E9012301689B1ADBB20A60013B28
:1079F000DBB2FF2B026802D10020107110BD1168AC
:107A00004C1C14600B70F2E70E20F7E737B5054603
:107A100000240DF107008DF80740FFF78BFE2A6860
:107A20006B68116899420ED9481E106011F8014C1C
:107A3000EB68298A01FB0434AB6811791B1ADBB2AD
:107A4000994238BF13719DF80700FFF797FE204653
:107A500003B030BD37B5054600230DF107000C46D5
:107A60008DF80730FFF766FE2A681368591C11600D
:107A7000E968641A298AB4FBF1F41C709DF80700C8
:107A8000FFF77CFE03B030BD826810B504462AB112
:107A900043690168006998470023A36010BD0EB4D4
:107AA00003B5039921B104AB01AA019300F06CF86E
:107AB00002B05DF804EB03B07047826830B404682C
:107AC000551C8560A154D0E901329A4202D330BCE2
:107AD000FFF7DABF30BC70472DE9F84F9946DDE972
:107AE0000A431746824688460A460126BA420FD202
:107AF0004E4538BF4E4613F0010B01D164B9002446
:107B00000125B9F1010F1AD909F1FF397D43F8E7D1
:107B1000B2FBF7F20136E9E79B070ED5B9F1000F8A
:107B20000CBF30252025A642EAD2013C294650460A
:107B3000FFF7C3FF002CF6D1E1E72025F3E7B8FB00
:107B4000F5F39F42E2D9DFF83C90B8FBF5F35046DD
:107B500019F8031005FB1388FFF7AFFFB5FBF7F328
:107B6000BD4207D2BBF1000F02D00CB1A64203D335
:107B7000BDE8F88F1D46E8E720215046013CFFF79D
:107B80009CFFF2E766FF02002DE9F74F0546174616
:107B90008846002900F0318118F8011B49B92B7B78
:107BA000002B00F02A81284603B0BDE8F04FFFF714
:107BB0006BBF252940F0C080002698F800302D2B9F
:107BC000424608F1010823D0302B24D02B2B25D09E
:107BD00000242A2B02F1010123D13B681A1D1B68E6
:107BE0003A601C440A4613782E2B26D101324FF0FE
:107BF000000A104610F8011BA1F1300CBCF1090F6E
:107C00001DD80A2303FB0A13A3F1300A0246F0E74A
:107C100046F00106D1E746F00206CEE746F004063C
:107C2000CBE711F8013CA3F130000928DBD80A2288
:107C300002FB0434303C0A46CBE74FF0000A12F84E
:107C4000011B01F0FB0068289046F8D069290ED08E
:107C50004AD8582964D006D825296DD098F8003024
:107C6000002B99D19BE7632962D06429F6D13A6849
:107C7000D2F80090111D89EAE9723960A2EBE9722D
:107C80004FF0010B092A5BDCD34538BFD3462CB13A
:107C9000B9F1000F01DB710700D5013CB20702D535
:107CA000BAF1000F04D0F30702D4002C4ED1002407
:107CB000B9F1000F52DAC9F100092D212846FFF76A
:107CC000FCFE06F00302022A05D1BAF1000F02D130
:107CD000002C47D10024CDE9004653460A224946EC
:107CE0002846FFF7F9FEB9E773294CD014D870295C
:107CF000B4D13B681A1D3A60302128461C68FFF752
:107D0000DCFE78212846FFF7D8FE00220823CDE9C3
:107D1000003221461022E3E775292BD078299DD126
:107D200039680A1D3A60CDE900465346102228E022
:107D30003B681A1D19783A602846FFF7BEFE8DE7AA
:107D40000A230BF1010BB2FBF3F29BE7A345AFD281
:107D500020212846013CFFF7B0FEA6E77007B0D50A
:107D60002B21ABE7A345B6D230212846013CFFF7D3
:107D7000A4FEADE73968CDE900460A1D3A605346D6
:107D80000A220968ACE73B681A1D3A60F107D3F88C
:107D9000009020D4B9F1000F25D0484607F0ECFB45
:107DA0000646B44200D9C4B909F1FF3920E028469B
:107DB0000136FFF782FE19F806100029F7D1A64216
:107DC000BFF44CAF002C3FF449AF20212846013CC2
:107DD000FFF773FEF3E70026EDE720212846013C7C
:107DE000FFF76BFEDDE74E46DBE72846FFF765FE53
:107DF00019F8011F0029F8D130E703B0BDE8F08F72
:107E00002DE9F047B0F806904479D2F800A09DF82B
:107E1000208009FB04F4043C06460AEB0300A04260
:107E20000F4688BFA4EB030A191DC2F800A0B1FBDE
:107E3000F9F509FB15114DB9A9EB0104544528BF0B
:107E40005446BAF1000F04D1BDE8F0873668013D11
:107E5000F1E704317B1970182246B8F1000F0ED0FB
:107E600001461846AAEB040A07F0E1FAD145254479
:107E700036684C464FF0000128BF5446E1E71946EA
:107E8000F0E7FFF7ACBDF8B546790146721E05462E
:107E9000002393422D6803D30024A64202D8F8BDE4
:107EA0000133F6E70F682846FFF7D4FD0134394661
:107EB000F3E72DE9F843068ACD1C0746FFF7A6FD38
:107EC000043E35440446B5FBF6F5F0B14FF480733B
:107ED000EDB28380C680013D076081464FF0000807
:107EE000A84512D23846FFF791FD064648B163799E
:107EF0000133637108F10108C9F800000760814689
:107F0000EEE72046FFF7BFFF34462046BDE8F88382
:107F100001210430FFF744BD10B5012104460430AF
:107F2000FFF749FD10F0FF0F04D12046BDE81040D7
:107F3000FFF7A9BF10BD1FB503920022009203AA4C
:107F4000FFF75EFF05B05DF804FB1FB50392012249
:107F5000009203AAFFF754FF05B05DF804FB33DF7E
:107F6000704741DF70470000064B10B500241C70BD
:107F7000054B1C60BFF35F8F0449054800F093F880
:107F8000204610BD653E0020683E002078FF0200BC
:107F90005C3E002007B500230DF107008DF8073087
:107FA000FFF7C8FBF1EE103A23F09F03E1EE103A21
:107FB000BFF35F8F094B4022C3F884219DF807006F
:107FC000FFF7DCFB04F0ACFA20B1FFF7CAFF03B007
:107FD0005DF804FB20BF40BF20BFF8E700E100E0F0
:107FE00070B5264C054601212046FFF7A3FCBFF3E0
:107FF0005F8F264638B9042D0AD0214B1A781AB162
:10800000BFF35F8F206070BD1E4A157001221A7089
:108010001D4C1C4D6368BBB9FEF7C0FDFEF79EFB0F
:108020000028FBD1174B1B78023B012B14D8BFF360
:108030004F8F1649164BCA6802F4E0621343CB60B7
:10804000BFF34F8F00BFFDE71B682878984788B1C2
:10805000204600F032F8DDE704F062FA08B1FFF7DD
:108060007EFF4FF080430122C3F80025BFF34F8FFE
:1080700020BFFDE7BFF35F8F3060C4E7683E00209C
:10808000653E0020643E00205C3E002000ED00E0E4
:108090000400FA05836800225A609A60C3E904224A
:1080A000DA601A6070470B684A684360934208BF01
:1080B0000023016008BF43607047436843B1026812
:1080C000916852680B449342436004BF00234360AD
:1080D0007047000010B50D49A1F59472914201D886
:1080E00000200FE08B1ADB1003EBD3735B1002EB65
:1080F000C30452F83330834205D802D204F1080297
:10810000ECE7606810BD2146E8E700BFC800030047
:1081100008B5FFF7DFFF024B002808BF184608BD6F
:108120008DFF020007B50B4688B9124B1248134A5F
:10813000C01A0E23C0080093114B0004114940F0EF
:108140000100FEF78CFC0E2003B05DF804FB4BB978
:10815000084B09480C4AC01AC0080E2300930004BB
:10816000074BEBE703601B68114603B05DF804EBB7
:10817000184700BFF0FC020038FD0200550503005F
:10818000820403005A050300D105030013B5044619
:1081900080B9114B1148124AC01AC0080E24114B65
:1081A0000094000440F001000F49FEF758FC2046FF
:1081B00002B010BD03684BB9074B08480B4AC01A00
:1081C000C008082400040094064BEBE75B6898475E
:1081D0000023C4E90033EBE7F0FC020038FD0200A5
:1081E00055050300940403005A050300CB05030062
:1081F000F7B580B92D4B2E482E4AC01AC0080E2460
:108200002D4B009400042D4940F00100FEF727FC9F
:10821000204603B0F0BD4AB9244B2548284AC01A6D
:10822000C0080E2400040094234BECE7D0F800C0F3
:10823000BCF1000F09D11D4B1D48224AC01AC008CD
:108240000824000400941C4BDDE74BB9174B184879
:108250001D4AC01AC008092400040094164BD2E736
:108260008E0709D0114B1248184AC01AC0081024B2
:1082700000040094104BC6E7C668B1420BD34C1EF5
:1082800005691C44AC4206D8DCF80840A44603B09B
:10829000BDE8F0406047054B05480D4AC01AC008CC
:1082A000102400040094044BADE700BFF0FC020072
:1082B00038FD020055050300A80403005A05030019
:1082C00083050300CB0503008A0503008E05030028
:1082D000A50503002DE9F34188B93D4B3D483E4AD1
:1082E000C01AC0080E243D4B009400043C4940F0E5
:1082F0000100FEF7B4FB204602B0BDE8F0814AB9A8
:10830000334B3448374AC01AC0080E240004009486
:10831000324BEBE7D0F800C0BCF1000F09D12C4B79
:108320002C48314AC01AC0080824000400942B4B82
:10833000DCE74BB9264B27482C4AC01AC008092451
:1083400000040094254BD1E74768D7F80480B3FBBD
:10835000F8F708FB17374FB11D4B1E48244AC01AC7
:10836000C0080924000400941C4BBFE78F0709D004
:10837000174B18481F4AC01AC00810240004009464
:10838000164BB3E712F0030F09D0114B11481A4AEC
:10839000C01AC008102400040094104BA6E7C76858
:1083A000B9420BD34C1E05691C44AC4206D8DCF81C
:1083B0000C40A44602B0BDE8F0416047044B0548BC
:1083C0000E4AC01AC008102400040094034B8DE725
:1083D000F0FC020038FD020055050300BA0403005A
:1083E0005A050300D7050300CB0503008A050300E7
:1083F000DD050300070603001F0603004206030015
:10840000F7B580B92A4B2B482B4AC01AC0080E2456
:108410002A4B009400042A4940F00100FEF71FFB9C
:10842000204603B0F0BDD0F800C0BCF1000F09D168
:108430001F4B2048234AC01AC00808240004009497
:108440001E4BE8E74AB91A4B1A481F4AC01AC0081F
:10845000092400040094194BDDE74768D7F800E0D1
:108460000EF1FF370F4209D0114B1248174AC01ABC
:10847000C008102400040094104BCCE7C768B94230
:108480000CD34C1E05690EFB0244AC4206D8DCF846
:108490001040A44603B0BDE8F0406047044B0548D7
:1084A0000B4AC01AC008102400040094034BB2E722
:1084B000F0FC020038FD020055050300CD04030066
:1084C0005A050300CB0503008A050300E0040300FE
:1084D0000605030070B508B10368ABB90C4D0D4C2F
:1084E0000026641B1423B4FBF3F4B44201D1002032
:1084F00009E02B6813B901361435F6E7DB69284625
:1085000098470028F7D070BDDB69BDE87040184778
:1085100098330020AC33002029DF704728DF7047F4
:1085200070B503689D6886B004460E466DB114228E
:108530000021684606F0A4FFA368059323790196FD
:108540002BB1012B0DD06846A84706B070BD0123A2
:108550008DF8003023690293E36803936369049301
:10856000F1E702238DF80030E3681B030293F5E77F
:108570000846704700207047024B187A003018BF39
:1085800001207047083F0020034B187A0122B0FAFF
:1085900080F05A7440097047083F002008B5104623
:1085A0001A4606F044FF002008BD000008B514225A
:1085B0000021044806F064FF0348FFF708F9002093
:1085C00008BD00BF083F0020F83E002010B5094C50
:1085D000094B43602046FFF7F9F940B903F0A0FFCB
:1085E0001C2320748C2205490548FFF7DDF8002084
:1085F00010BD00BF083F0020780603006C3E00203D
:10860000F83E002070B5244D244E2B7A2C463BB901
:1086100023492448FFF737F9306008B9686070BD16
:108620000223237233681A7972B1012A24D01846C2
:108630000321FFF775FF002323726360184919486F
:10864000BDE87040FFF74AB9D3E90520121AB2F528
:10865000805F28BF4FF48052D3E903159208012AA6
:10866000014438BF01222844FFF756FF50B11128BA
:10867000DDD101232372D2E7D3E903021044FFF7CF
:108680004DFFF3E7237C002BC9D10146BDE87040C4
:10869000022000F009B800BF083F0020203F002062
:1086A0001C3F0020F83E002038B5831E012B45D822
:1086B000234C237A002B41D0022B09D1032830D040
:1086C000204B1B680022E2601A793AB1012A22D0BD
:1086D000637C7BBBBDE83840FFF794BFD3E905124C
:1086E0008D1AB5F5805F94BF521902F580529A61D8
:1086F0009142EDD102284FF0000308BF19462372C2
:10870000104B18BF0D211868FFF70AFF0E490F48DC
:10871000FFF7E4F8DCE71A6901321A615B699A42F3
:10872000E7E7E3680133082B01D8E360D0E70023D3
:10873000E360DFE7BDE8384003F0E2BE38BD00BFCC
:10874000083F0020203F00201C3F0020F83E002072
:1087500000F0FD03012B08D1044B00225A74421E85
:10876000504250411874FFF74DBF7047083F00203A
:1087700010B5064C201DFFF729F928B9637C1BB9F9
:10878000BDE81040FFF73EBF10BD00BF083F00200E
:108790002DE9F34180460D460F4801A916461F46B4
:1087A000FFF737F80446A8B11C22002106F068FE46
:1087B0002D0B0123237101A9C4F80080A760E56097
:1087C00066610548FFF74FF8FFF7D2FF002002B0BF
:1087D000BDE8F0810420FAE7F83E00202DE9F743D8
:1087E00081468846104801A917461E46FFF711F832
:1087F0000446B0B11C22002106F042FE00250A9B6F
:10880000A36001A92571C4F80090C4E903786661EA
:108810000548FFF728F8FFF7ABFF284603B0BDE88F
:10882000F0830420FAE700BFF83E0020BFF34F8F2B
:108830000549064BCA6802F4E0621343CB60BFF3FC
:108840004F8F00BFFDE700BF00ED00E00400FA0518
:108850000C4B1B78062B10D10B4B1B681A070CD145
:108860000A4B186800F0F003302B08D000F0E0004D
:10887000A0F1400358425841704700207047012042
:10888000704700BFE00F00F0E40F00F0E80F00F0C9
:10889000094B1B78062B0CD1084B1B681A0708D113
:1088A000074B186800F0F000A0F13003584258411F
:1088B00070470020704700BFE00F00F0E40F00F0A9
:1088C000E80F00F008B5FFF7C3FF28B1894B8A4ACB
:1088D0001B68C3F304231360FFF7DAFF10B1874B63
:1088E000874A1A60FFF7B4FF28B1864B864A1B6897
:1088F000C3F342331360FFF7CBFF20B1834AD36841
:1089000023F08073D360FFF7A3FF40B14FF08043A3
:108910000022C3F80C21C3F81021C3F83825FFF753
:10892000B7FF10B17A4B03221A60FFF7B1FF40B1D5
:10893000784B05221A6001229A6700229A603F2232
:108940005A60754B1B78062B50D1744B1B68180767
:108950004CD1734B1B6803F0F003502B46D14FF002
:108960008052704BD2F80414C3F82015D2F80814C2
:10897000C3F82415D2F80C14C3F82815D2F8101433
:10898000C3F82C15D2F81414C3F83015D2F8181403
:10899000C3F83415D2F81C14C3F84015D2F82014CB
:1089A000C3F84415D2F82414C3F84815D2F8281493
:1089B000C3F84C15D2F82C14C3F85015D2F8301463
:1089C000C3F85415D2F83414C3F86015D2F838142B
:1089D000C3F86415D2F83C14C3F86815D2F84014F3
:1089E000C3F86C15D2F84424C3F87025FFF730FFA4
:1089F00028B14D4B4D4A1B6803F04F031360FFF73E
:108A000027FF48B14FF08043D3F80024D10744BF7B
:108A10006FF00102C3F80024454B1B68062B08D1F8
:108A2000444B1B68062B01BF434A136843F4806321
:108A30001360424AD2F8883043F47003C2F8883099
:108A4000BFF34F8FBFF36F8F4FF01023D3F80C227B
:108A5000D2071ED53A4B0122C3F80425D3F80024CF
:108A6000002AFBD04FF01022D2F80C3223F0010381
:108A7000C2F80C32324B1A46D3F800140029FBD04E
:108A80000021C3F80415D2F80034002BFBD0FFF707
:108A9000CDFED3F80022002A03DBD3F80432002BEA
:108AA00023DA274B0122C3F80425D3F80024002A37
:108AB000FBD04FF010221521C2F80012D3F8002489
:108AC000002AFBD04FF010231522C3F804221C4BC0
:108AD0001A46D3F800140029FBD00021C3F804156E
:108AE000D2F80034002BFBD0D1E7164B164A1A609F
:108AF00008BD00BF240300104035014074C007408A
:108B00000DF0ADBA440200103C050040F0ED00E06D
:108B1000A005004010560040E00F00F0E40F00F008
:108B2000E80F00F000C0004058020010E40E0040C2
:108B300030010010340100103C17004000ED00E04F
:108B400000E00140B43300200090D0036DDF704797
:108B500072DF704773DF704776DF704777DF7047EB
:108B600078DF70477ADF70477CDF70477FDF7047C0
:108B70008FDF7047B0DF7047B1DF704708B5174A25
:108B8000174B9B1ADB081B04032823D8DFE800F0EF
:108B900002151C2043F003001249FDF749FF124B58
:108BA00018884FF6FF73984216D11321FFF7D4FFB0
:108BB00090B1BDE80840FEF769BA0C4943F00300E4
:108BC000BDE80840FDF734BF094943F00100F7E76D
:108BD0000849FAE70849F8E708BD00BFF0FC0200C1
:108BE00020FD0200A4060300D2330020D2060300B9
:108BF000F50603002E0703005B070300FEF746BAE5
:108C000008B5054B01211878FFF7A4FF18B1BDE89E
:108C10000840FEF73BBA08BDD033002008B50D4828
:108C20000D4B0E49C01AC008000440F00300FDF7C8
:108C3000FFFE02F03BF80A48FEF760FD08B1FEF7C0
:108C400025FA0848FEF75AFD18B1BDE80840FEF7BE
:108C50001DBA08BD20FD0200F0FC020082070300DF
:108C6000CC400020AC400020F8B5344C344D236893
:108C7000296803F57A728A42324A06DBA3F57A73D1
:108C8000994202DB1378002B56D02F4E002313702D
:108C90003268FAB12D48FEF731FD08B1FEF7F6F95A
:108CA00033684EF6602159434FF400404FF4FA7692
:108CB0000027E0FB01674FF47A7200233046394603
:108CC00006F0E4F8002201462048FEF7D1FC08B186
:108CD000FEF7DCF91E4B2D681A681E4B2560AA1A98
:108CE00064251B681C4C1D49554395FBF3F51C4B33
:108CF000E41AE408240444F003042A462046FDF75D
:108D00009BFE002DB5BF6B422B46164A164A1748EC
:108D1000072106F0DAFA164B1B783BB1154B134AC4
:108D200018881549BDE8F84002F0EABC204613490E
:108D3000BDE8F840FDF77CBEF8BD00BF384100201B
:108D400014410020BC410020B84100208C4000208C
:108D50001C4100205841002020FD0200B7070300FD
:108D6000F0FC0200C2070300C90703003C410020D9
:108D7000BD410020D233002040400020D007030036
:108D800070B5264B264C2749E41AE408240444F025
:108D9000030486B0054620461646FDF749FE224BE1
:108DA0001B78012B2AD97389032B25D9042206F1BC
:108DB0000C010DEB020006F03AFB1C4B019A1C491A
:108DC0001A602046FDF738FE1022002102A806F0A6
:108DD00057FB02238DF808300023ADF80C309DF8C6
:108DE0000E3002A943F0010328468DF80E30FFF73C
:108DF000C1FE08B1FEF74AF906B070BD0D49204624
:108E0000FDF716FE1022002102A806F039FB02230E
:108E10008DF8083040F20313DFE700BFF0FC0200DA
:108E200020FD0200E4070300BD410020584100205E
:108E3000F70703000A0803002DE9F0434E4B4F4C9F
:108E40004F49DFF86881E41AE4082404154644F029
:108E5000030485B005F10C0906462046FDF7E8FD40
:108E60006A8949462046FDF717FE6A894549484602
:108E700006F0F8F96A890746E8B9142A1BD1424975
:108E80002046FDF7D5FD28223946404806F0F8FA7D
:108E900004223F493D4806F02CFA3E4A0123137054
:108EA00010223946684688F8003006F0E9FA0223B5
:108EB0008DF8003016E03849484606F0D3F96A8943
:108EC000074608BB142A1FD120463449FDF7B0FDE0
:108ED000022410223946684688F8004006F0D0FA8D
:108EE0008DF800409DF80630ADF8047043F00103A2
:108EF000694630468DF80630FFF73CFE08B1FEF7B4
:108F0000C5F805B0BDE8F0832049484606F0AAF947
:108F1000074658B91D486D8906F02EFB854205D1DC
:108F20001F492046FDF784FD0123B9E71D4920466E
:108F3000FDF77EFD00211022684606F0A1FA02230B
:108F40008DF800308123ADF804309DF80630694675
:108F500043F0010330468DF80630FFF70BFE08B1F1
:108F6000FEF794F898F80030002BCAD10E4B13216D
:108F70001888FFF7F1FDC1E7F0FC020020FD0200B8
:108F800017080300EC4000202C0803008841002053
:108F90005C080300FA3F0020004100206108030044
:108FA0007308030085080300D2330020BD41002070
:108FB00008B503784BB9054B3B211888FFF7CCFD6A
:108FC00018B1BDE80840FEF761B808BDD2330020F3
:108FD000022810B522D1134B134C1449E41AE408AB
:108FE000240444F003042046FDF722FD104B1B78B7
:108FF000B3B9FEF793FB08B1FEF748F84FF0A04372
:109000000122C3F80C25FEF727F808B1FEF73EF859
:1090100001F06AFD07492046FDF70AFD012010BD59
:109020000020FCE7F0FC020020FD02008F08030096
:10903000FA3F0020BC080300032807D14FF080430B
:10904000A922C3F820250020FEF7CABF7047000000
:1090500010B501F0FFFD184C184B2060024618486F
:109060001B1ADB081B0443F00300531C04D1BDE8AA
:1090700010401449FDF7DCBC1349FDF7DDFC134B30
:1090800020681A68042AC4BF00221A601968104AAE
:1090900042F8210001311960D2E900310B44916896
:1090A0000B44D16812690B441344052293FBF2F37D
:1090B000084A136010BD00BF1841002020FD0200C7
:1090C000F0FC0200EB080300FE0803002041002032
:1090D000244100201441002030B51D4B04461D489A
:1090E0001B1ADB081B0443F003001B4B1D7885B0E3
:1090F000FDB11A49FDF79CFC194B01221A700021A1
:109100001022684606F0BCF902238DF800300023D7
:10911000ADF804309DF80630694643F0010320465F
:109120008DF80630FFF726FD08B1FDF7AFFF05B05B
:1091300030BD0C49FDF77CFC10222946684606F03C
:109140009FF902238DF8003040F20313E0E700BFDF
:1091500020FD0200F0FC0200BD4100200A090300CE
:10916000FA3F00200A08030030B5254B0446254885
:109170001B1ADB081B0443F00300234B1D7885B04A
:10918000FDB12249FDF754FC00211022684606F08B
:1091900077F902238DF800300023ADF804309DF8F4
:1091A0000630694643F0010320468DF80630FFF78C
:1091B000E1FC08B1FDF76AFF0020FFF72FFD05B0C5
:1091C00030BD1349FDF734FC29461022684606F0ED
:1091D00057F902238DF8003040F20313ADF8043044
:1091E0009DF80630694643F0010320468DF80630AD
:1091F000FFF7C0FC0028E2D0FDF748FFDFE700BF23
:1092000020FD0200F0FC0200BD4100202009030007
:109210000A08030030B51F4B04461F481B1ADB0821
:109220001B0443F003001D4B1D7885B025B31C4D76
:109230001C492A68FDF700FC1B4B2A681A601B4B6F
:1092400001221A7000211022684606F019F9022343
:109250008DF800300023ADF804309DF806306946E3
:1092600043F0010320468DF80630FFF783FC08B178
:10927000FDF70CFF05B030BD0D49FDF7D9FB1022FD
:109280002946684606F0FCF802238DF8003040F2CB
:109290000313E0E720FD0200F0FC0200BD410020C6
:1092A00014410020310903001C410020BC41002072
:1092B0000A080300F0B5334B334CE41A334BE4088F
:1092C0001F7897B02404064644F0030409AD002F2C
:1092D00045D000272E492046FDF7AAFB2E2239460D
:1092E0000AA8099706F0CCF82A4B2B4A1B6803936F
:1092F0002A4B1B6802932A4B1B680193294B1B685E
:109300000093294B32211B68284605F0DEFF2846D2
:1093100006F032F92E23024624492046FDF795FB3C
:109320003946102205A806F0ABF8012328468DF82F
:109330001430ADF8187006F01FF99DF81A30ADF82A
:109340001E0043F001038DF81A30089505A9304638
:10935000FFF710FC08B1FDF799FE17B0F0BD1449F6
:109360002046FDF765FB39461022284606F088F8AE
:1093700001238DF824304FF48173ADF8283029464D
:10938000E5E700BFF0FC020020FD0200BD41002027
:109390003E0903005C4100205309030058410020AE
:1093A000B8410020B0410020B44100207C090300F6
:1093B0000A08030070B5364B364CE41A364B1B785E
:1093C000E4082404012B88B00546164644F0030443
:1093D0004DD928220021314806F052F806F10C013F
:1093E00072892E4805F085FF2D492C4806F09DF81E
:1093F00078B904A8FFF7AAFB9DF8113001939DF8F6
:1094000012300093274A9DF813302748232105F096
:109410005CFF112321488DF80C3006F0ADF81F4990
:1094200082B203A8FFF7A0FB08B1FDF72FFE1B4A8D
:109430001E492046FDF700FB102200210DEB020023
:1094400006F01EF802238DF810300023ADF814301A
:109450009DF8163004A943F0010328468DF8163014
:10946000FFF788FB08B1FDF711FE08B070BD104989
:109470002046FDF7DDFA102200210DEB020005F079
:10948000FFFF02238DF8103040F20313DEE700BF28
:10949000F0FC020020FD0200BD41002060410020E0
:1094A000AC090300250C030065410020B20903004C
:1094B0000A08030070B52D4B2D4CE41A2D4B1B7878
:1094C000E4082404012B86B00546114644F0030449
:1094D0003CD901220C310DF1070005F0A8FF264907
:1094E0009DF80720254E2046FDF7A6FA9DF8072097
:1094F00032604FF0A04312F0040F4FF4005215BF3A
:10950000C3F80C25C3F808251D491E492046FDF760
:109510008FFA306801F050FC1022002102A805F0FB
:10952000AFFF02238DF808300023ADF80C309DF812
:109530000E3002A943F0010328468DF80E30FFF7E4
:1095400019FB08B1FDF7A2FD06B070BD0E4920461B
:10955000FDF76EFA1022002102A805F091FF022308
:109560008DF8083040F20313DFE700BFF0FC020083
:1095700020FD0200BD410020BF0903005C41002026
:10958000D1090300E20903000A0803002DE9F043B2
:10959000394B3A4CE41A3A4BE4081E78240485B05F
:1095A000054644F00304002E54D0518902F10C000A
:1095B00005F0C8FE05F02BFF3C28024645DC0028DC
:1095C00046DC012287272F4E2F4932602046FDF7C7
:1095D00033FA2E48FEF792F808B1FDF757FD3368CD
:1095E000CBB14EF6602159434FF400404FF4FA7866
:1095F0004FF00009E0FB01894FF47A7200234046E6
:10960000494605F043FC002201462048FEF730F8A9
:1096100008B1FDF73BFD10220021684605F030FF40
:1096200002238DF80030ADF804709DF806306946CD
:1096300043F0010328468DF80630FFF79BFA08B186
:10964000FDF724FD05B0BDE8F0833C228627BAE78C
:109650000027B8E70E492046FDF7EAF91022314607
:10966000684605F00DFF02238DF8003040F2031329
:10967000ADF80430D9E700BFF0FC020020FD020085
:10968000BD410020B8410020F30903008C400020B8
:109690000A0803002DE9FF413A4B3B4CE41A3B4BCF
:1096A000E4081D782404064644F00304002D57D036
:1096B000518902F10C0005F045FE05F0A8FE41F2CB
:1096C00088339842054644DCC72846DCC8254FF05D
:1096D00087082F4A2F4F12783D60DAB12E48FEF7E7
:1096E0000DF808B1FDF7D2FCD7F800C04FF4FA70BE
:1096F0004FF4004700214FF47A720023E7FB0C017E
:1097000005F0C4FB002201462348FDF7B1FF08B174
:10971000FDF7BCFC21492A462046FDF78DF91022B1
:109720000021684605F0ACFE02238DF80030ADF84C
:1097300004809DF80630694643F0010330468DF8F9
:109740000630FFF717FA08B1FDF7A0FC04B0BDE83A
:10975000F0811D464FF08608BBE74FF00008B8E7E0
:109760000F492046FDF764F910222946684605F0A6
:1097700087FE02238DF8003040F20313ADF8043069
:10978000D7E700BFF0FC020020FD0200BD41002031
:1097900010400020B0410020AC400020080A030027
:1097A0000A0803002DE9FF413A4B3B4CE41A3B4BBE
:1097B000E4081D782404064644F00304002D57D025
:1097C000518902F10C0005F0BDFD05F020FE41F2CB
:1097D00088339842054644DC3D2846DC3E254FF060
:1097E00087082F4A2F4F12783D60DAB12E48FDF7D7
:1097F00085FF08B1FDF74AFCD7F800C04FF4FA70B6
:109800004FF4004700214FF47A720023E7FB0C016C
:1098100005F03CFB002201462348FDF729FF08B173
:10982000FDF734FC21492A462046FDF705F91022B0
:109830000021684605F024FE02238DF80030ADF8C3
:1098400004809DF80630694643F0010330468DF8E8
:109850000630FFF78FF908B1FDF718FC04B0BDE83A
:10986000F0811D464FF08608BBE74FF00008B8E7CF
:109870000F492046FDF7DCF810222946684605F01E
:10988000FFFD02238DF8003040F20313ADF80430E1
:10989000D7E700BFF0FC020020FD0200BD41002020
:1098A00010400020B4410020CC400020370A0300C3
:1098B0000A080300F0B5284B284CE41A284BE408AA
:1098C0001F78240485B00646154644F003049FB370
:1098D0002449204605F10C07FDF7AAF86A893946A4
:1098E0002046FDF7D9F8282200211F4805F0C8FDC1
:1098F0006A891D48394605F0FCFC1B4A1B49204675
:10990000FDF79AF810220021684605F0B9FD022300
:109910008DF800300023ADF804309DF8063069461C
:1099200043F0010330468DF80630FFF723F908B104
:10993000FDF7ACFB05B0F0BD0D492046FDF778F80A
:1099400010223946684605F09BFD02238DF8003051
:1099500040F20313DFE700BFF0FC020020FD02002D
:10996000BD410020620A030088410020790A0300FB
:109970000A080300FDF78ABB4FF0A0430322012130
:10998000C3F80027C3F80C150021C3F85C1713486F
:10999000C3F834271249C3F86027C3F810271022F0
:1099A000C3F80C254FF08072C3F80C25401A4FF411
:1099B00000520C49C3F808250968C00849074FEA56
:1099C00000404ABF08490949C3F80C2540F003008C
:1099D00058BFC3F80825FDF72BB800BF20FD0200D3
:1099E000F0FC02005C410020D1090300E209030001
:1099F0002DE9F0411D4E1E4F3378834280460D46BF
:109A000002D13B788B422FD01A4C1B4BE41AE4084E
:109A1000240444F00304B8F1000F16D0174920467F
:109A2000FDF706F801233370DC21402000F0FCFD37
:109A30009DB113492046FCF7FBFF01233B70DC215D
:109A4000BDE8F041422000F0EFBD0E492046FCF792
:109A5000EFFF86F800804146E7E70B492046FCF718
:109A6000E7FF3D702946EBE7BDE8F0811340002099
:109A70001140002020FD0200F0FC02008A0A0300D1
:109A8000AB0A03009A0A0300BF0A03004FF0A04389
:109A90000122C3F80C25034B1978034B1878FFF704
:109AA000A7BF00BF124000201440002073B5184B20
:109AB000184C1949194EE41AE408240444F003042C
:109AC0002046FCF7B5FF032000F06AFD0190019DE0
:109AD00015F0020510D012492046FCF7A9FF00211D
:109AE0000120FFF785FF002301220E49308802B0D4
:109AF000BDE8704001F072BC0B492046FCF798FFAE
:109B000001212846FFF774FF01232A46EDE700BF35
:109B1000F0FC020020FD0200D40A0300D233002032
:109B2000E40A0300243F0020010B0300F7B5914D28
:109B30002B680446FBB19048FDF7E0FD08B1FDF746
:109B4000A5FA2B684EF6602159434FF400404FF4BC
:109B5000FA760027E0FB01674FF47A720023304663
:109B6000394605F093F9002201468348FDF780FD50
:109B700008B1FDF78BFA4FF0A0430122C3F8082586
:109B80007E4B1A787E4B1A707E4B00211A787E4BE2
:109B900008461A70FFF72CFF7C48002240F28F2104
:109BA000FDF766FD08B1FDF771FA23883B2B00F045
:109BB000CA8014D8132B00F0B18006D8102B58D0CF
:109BC000112B00F0838003B0F0BD212BFBD10023CB
:109BD000A088ADF8043001A9FEF7CAFFA5E0522B1A
:109BE00000F0A980562B00F0AE80502BEBD1684BD3
:109BF000E288DB889A42E6D1238A022BE3D104F182
:109C0000120003F024FA634B024618706248634B5B
:109C10001B1ADB081B0443F00300002A00F09880A5
:109C20005F49FCF705FF5F4B1D684FF400444FF49C
:109C3000FA7000214FF47A720023E4FB050105F06D
:109C400025F9002201465848FDF712FD08B1FDF73D
:109C50001DFA564B1D684FF4FA7000214FF47A72CA
:109C60000023E4FB050105F011F9002201465048EC
:109C700029E0494B49484F49C01AC008000440F048
:109C80000300FCF7D5FE4C4BA1884C48198003F02B
:109C9000DDFB08B1FDF7FAF92B68002B93D04EF6E7
:109CA000602159434FF400404FF4FA740025E0FB63
:109CB00001454FF47A7200232046294605F0E6F864
:109CC00001462D480022FDF7D3FC2EE03C4B3648E0
:109CD00000221A70FDF712FD08B1FDF7D7F93448DC
:109CE000FDF70CFD08B1FDF7D1F92348FDF706FD9E
:109CF00008B1FDF7CBF900F0D9FF274B27483149D0
:109D0000C01AC008000440F00300FCF791FE2A4B83
:109D10004FF6FF721A80FEF773FF54E726480023C0
:109D200000881A468521FEF721FF00283FF44BAF3B
:109D3000FDF7ACF947E7204800231A46194600888A
:109D4000FEF71AFFF1E7A0881321FEF705FFECE705
:109D50001D49FCF76DFE1448FDF7D0FC08B1FDF776
:109D600095F91348FDF7CAFC08B1FDF78FF900F02B
:109D70009DFF28E7B84100208C40002013400020C0
:109D80001440002011400020124000206C400020B0
:109D90004040002010400020F0FC020020FD0200A6
:109DA000390B0300B4410020CC400020B04100201A
:109DB000AC400020220B0300D233002034400020AE
:109DC000BD4100202C0B0300570B0300162810B5D3
:109DD0000C462CD11848194BC01AC008000440F09A
:109DE000030089B11649FCF723FE164800224FF400
:109DF0000041FDF73DFC08B1FDF748F900210120C5
:109E0000BDE81040FFF7F4BD0F49FCF711FE0F4805
:109E10000F4900882346224601F0E0FA0948FDF781
:109E20006DFC08B1FDF732F900210846E8E7BDE80E
:109E30001040FDF72BB900BF20FD0200F0FC02002E
:109E4000750B03004C400020870B0300D233002029
:109E5000243F00204FF080531A6E42711A6E120A8E
:109E600002711A6E120CC2701A6E120E82705A6E45
:109E700042705B6E1B0A0370704700002DE9F04FC3
:109E80004FF40041B5B00020FCF70EFC08B1FDF71F
:109E9000FDF8FCF73FFB02F0BFF908B1FDF7F6F85B
:109EA000FEF762F808B1FDF7F1F8A64BA64C029355
:109EB000A64BA74AA749A84801930094A74B00F0D6
:109EC0006BFDFFF759FDFDF791FB0F9408B1FDF70E
:109ED000DDF8A34AA3480121FDF7B8FB08B1FDF75F
:109EE000D5F8A14AA1480121FDF7B0FB08B1FDF763
:109EF000CDF89F4A9F480121FDF7A8FB08B1FDF767
:109F0000C5F89D4A9D480021FDF7A0FB08B1FDF76B
:109F1000BDF89B4A9B480021FDF798FB08B1FDF76F
:109F2000B5F800F09FFB984841F69A120121FDF721
:109F300029F808B1FDF7AAF8FDF778F808B1FDF7A0
:109F4000A5F802F06FFA08B1FDF7A0F8002324A9E4
:109F50000120249302F02EFB08B1FDF797F824A806
:109F600002F0F8FB08B1FDF791F800231AA88DF86C
:109F70005830FEF7EBFD8549724805F0D6FA60B916
:109F80009DF8693001939DF86A300093804A9DF8EE
:109F90006B308048232105F098F96A4805F0ECFA07
:109FA000684982B216A8FEF7DFFD08B1FDF76EF82A
:109FB0004FF44860FEF7D4FD08B1FDF767F80822BA
:109FC000002124A805F05CFA734A4FF0C87324A856
:109FD000CDE92423FEF7C6FD08B1FDF757F86F4819
:109FE000002103F02BF908B1FDF750F800242146B9
:109FF00028221AA8CDE9144405F042FA684B6948B2
:10A00000109411A9119303F00FFA08B1FDF73EF86F
:10A01000654B109310A802F083F808B1FDF736F8ED
:10A02000624B14936248634B159314A901F0AAFB89
:10A0300008B1FDF72BF8604B1A93604B1B93604BF4
:10A040001C93604B1D93604B1E93604B1F93604BA2
:10A050002093604B2193604B22936048604B239385
:10A060001AA901F0B5FC08B1FDF710F85D4801F040
:10A07000E1FA08B1FDF70AF80021102216A805F050
:10A08000FFF901238DF86530574840F2011316A9F6
:10A09000ADF8663001F0E2F808B1FCF7F7FF4022B6
:10A0A000002124A805F0ECF9504924A802F0D3FFC0
:10A0B0004F4926A802F0CFFF12A8FFF7CBFE9DF86C
:10A0C0004D3004939DF84C3003939DF84B30029330
:10A0D0009DF84A3001939DF84930464A00930D217E
:10A0E0009DF84830444805F0F0F8434928A802F0AC
:10A0F000B2FF42492CA802F0AEFF2AA8404902F064
:10A10000AAFF012324A88DF8CC3001F09DF908B1F5
:10A11000FCF7BCFF3C22002124A805F0B1F9394A24
:10A1200002238DF8903052F8041B40F2016324A8FA
:10A13000ADF8923002F0ECFB002865D0FCF7A6FFEA
:10A1400062E000BF604100205C41002088410020A7
:10A15000B8410020B0410020B44100205841002007
:10A1600051900200480C0300698C0200440C03006B
:10A17000AD9A0200380C03001D8C0200400C030055
:10A180008D9A02003C0C0300B83300209C0B0300A6
:10A19000250C0300654100205000A000FC3F00207A
:10A1A000FD8B0200344000207D8B0200398E0200BE
:10A1B00018400020B5980200159202006991020033
:10A1C000A5970200959602008D950200818D0200F0
:10A1D000B5940200B5930200D9900200403F0020E0
:10A1E000B592020040400020243F0020A20B030053
:10A1F000A60B0300B10B030043410020CA0B030070
:10A20000AC0B0300C0330020182200211AA805F06F
:10A2100037F900230122ADF874301B934FF480739B
:10A220008DF86820ADF87C30A649A7484FF4C87374
:10A230001AAA1C93FEF78CFC08B1FCF727FFA24B6F
:10A240006FF0130219780120FEF788FC08B1FCF7C3
:10A250001DFF1C22002124A805F012F900234FF451
:10A260002022CDE92432ADF89E304FF420328DF813
:10A27000A030964B269229930322954B8DF89C2073
:10A2800024A82A9302F00EFE08B1FCF7FFFE0F9BF4
:10A29000186800F02FFD1AA8FFF7DCFD24A8FEF7D0
:10A2A00055FC9DF891409DF893108A4B9DF89200C3
:10A2B0009DF895609DF86C809DF86BE09DF86AC0F4
:10A2C0009DF869B084EA010A8AF055021A709DF877
:10A2D000942080EA020989F073055D7084F03605E8
:10A2E0009D7080F04505DD7081F06B051D7182F079
:10A2F0005E055D7186F065059D719DF89650079528
:10A3000085F04105DD719DF86D50089585F03005AB
:10A310001D7288F06E055D728EF021059D728CF0C5
:10A320005B05DD728BF03F051D739DF8685085F06D
:10A330005B075F73089F6740099787F068079F7303
:10A3400080EA08070A9787F03307DF7381EA0E0770
:10A350000B9787F033071F7482EA0C070C9787F07E
:10A360003D075F7486EA0B070D9787F027079F74F8
:10A37000079F6F400E9787F04E07DF74564B82F0B1
:10A3800079025A71079A82F05E02DA71089A82F0B5
:10A390003B021A7288F030025A728EF03C029A72B6
:10A3A0008CF03602DA728BF030021A73099A82F05E
:10A3B00026029A730A9A82F03802DA730B9A82F0B4
:10A3C00035080C9A83F8108082F0320E84F05F0416
:10A3D00080F0200081F0440185F024058AF0420AD3
:10A3E00089F0390986F05E069C70D87019715D732A
:10A3F00083F800A083F801909E7183F811E00D9A14
:10A400003648374C3749384D82F0290C0E9A83F87C
:10A4100012C0241A82F05307E408DF742404334B7B
:10A4200044F003041A682046FCF706FB304B314920
:10A430001A682046FCF700FB2F4B30491A6820466B
:10A44000FCF7FAFA2E4B2F491A682046FCF7F4FA6B
:10A450000F9B2D491A682046FCF7EEFA20462B4A3E
:10A460002B49FCF7E9FA204A2A492046FCF7E4FA8E
:10A47000FEF7C6FB20462849FCF7DAFA20462749B2
:10A48000274CFCF7D5FA4FF0A0431620D3F810154F
:10A49000C1F38051FFF79AFC1C4E23785BB1002377
:10A4A0002370204B0093CDE90165154B124A1049EA
:10A4B0000E4800F0E7F9FCF751F90028EDD1FDF75F
:10A4C00069FDE9E7C0330020D0330020B18F0200DE
:10A4D00075990200EC40002000410020F0FC0200D1
:10A4E00020FD0200D10B030060410020B441002098
:10A4F000B0410020D80B0300B8410020DF0B03005F
:10A5000058410020E60B0300ED0B030088410020BA
:10A51000F40B0300B6090300FD0B0300110C03004C
:10A52000FA3F00205C41002041DF704710B50478FD
:10A53000012C0ED014B1022C18D010BD0379012BC0
:10A5400003D1104B1A78104B1A70104B01221A705D
:10A55000F3E70F4B0F481049C01AC008000440F041
:10A560000300FCF765FA094B1C70E6E7084B094845
:10A570000A49C01AC008000440F00300FCF758FA6A
:10A58000E3E700BFBF410020BE410020C3410020DF
:10A59000F0FC020020FD02005C0C03008F0C0300A5
:10A5A00030B585B0194B8DF80F0019481949C01AFC
:10A5B000C008000440F003000025FCF739FA0095BC
:10A5C00001230DF10F024821134803F0CDFD08B11E
:10A5D000FCF75CFD114C2570FFF7A6FF2378002BDC
:10A5E000FAD001230E4A0C48482103F0D8FD08B1E7
:10A5F000FCF74CFD00232370FFF796FF2378002B18
:10A60000FAD0084B187805B030BD00BFF0FC02004E
:10A6100020FD0200C40C0300500C0300C3410020C5
:10A62000BF410020BE4100201FB500248DF80C0062
:10A630008DF80D100094022303AA4821074803F067
:10A6400093FD08B1FCF722FD054B1C70FFF76CFF72
:10A650001A78002AFAD004B010BD00BF500C0300D5
:10A66000C34100201FB51A211922CDE900124FF075
:10A67000CC72002302920222039369468DF80C20CB
:10A680002448254A03F092FA08B1FCF7FFFC23485E
:10A6900003F01CFC03212820FFF7C6FF0E21312008
:10A6A000FFF7C2FF08210846FFF7BEFF0121442043
:10A6B000FFF7BAFF1C214020FFF7B6FFFF21412022
:10A6C000FFF7B2FF1C214220FFF7AEFFFF2143201E
:10A6D000FFF7AAFFA1212120FFF7A6FFC121222019
:10A6E000FFF7A2FF10212320FFF79EFFFD2124206A
:10A6F000FFF79AFFFC212520FFF796FF5021262027
:10A70000FFF792FF50212720FFF78EFF05B05DF87D
:10A7100004FB00BF4C0C03002DA50200500C0300ED
:10A7200041DF704707B5042301460DEB03020B48D8
:10A73000FDF75EFD80B1FDF7EBFC094B09490246D0
:10A7400009481B1ADB081B0443F00300FCF774F9EB
:10A75000002003B05DF804FB0198FAE7983300206D
:10A7600020FD0200D60C0300F0FC0200436810B488
:10A770005BB11548154B16495DF8044BC01AC0086B
:10A78000000440F00300FCF753B90378012B04D018
:10A79000022B10D05DF8044B70470C4B0A4C026939
:10A7A0000C49E41AE4088368240444F003005DF8CB
:10A7B000044BFCF74AB9054B034C02690649E41AFD
:10A7C000E40883682404F0E720FD0200F0FC0200A6
:10A7D000F70C0300380D03006C0D030008B50A46A2
:10A7E000282301460948FDF703FD70B1FDF790FCF1
:10A7F000074B0849024608481B1ADB081B0443F0B4
:10A800000300BDE80840FCF717B908BD98330020E5
:10A8100020FD0200D60C0300F0FC020010B5044637
:10A820002046FDF757FE00B910BDFFF779FFF7E7A7
:10A8300013B51346002200920A4601460D48FDF763
:10A8400049FD044678B1FCF721FC2046FDF760FC89
:10A85000094B0A4902460A481B1ADB081B0443F04D
:10A860000300FCF7E9F8034802B0BDE81040FFF729
:10A87000D5BF00BF9833002020FD0200A20D0300C9
:10A88000F0FC02002DE9F8430C46904601460422F4
:10A8900030480A9D1F46DDE9089604F0C8FD0422F1
:10A8A00041462D4804F0C3FD042239462B4804F0EC
:10A8B000BEFD214604222A4804F0B9FD042249467F
:10A8C000284804F0B4FD2848002301224FF4483101
:10A8D000FDF796FD044678B1FCF7D8FB2046FDF75E
:10A8E00017FC224B2249024622481B1ADB081B0494
:10A8F00043F00300FCF7A0F81B48FFF78FFF1E4949
:10A9000004224FF44830FFF793FF12491B480422FA
:10A91000FFF78EFF10491A480422FFF789FF0F49FD
:10A9200018480422FFF784FF0D4917480422FFF757
:10A930007FFF0C4915480422FFF77AFF314614487F
:10A940002822FFF775FF29461248BDE8F843282260
:10A95000FFF76EBFD0410020D4410020C441002049
:10A96000CC410020C84100209833002020FD020087
:10A97000C40D0300F0FC0200D833002004200300C3
:10A98000082003000C200300102003001420030003
:10A9900018200300402003002DE9F84F3C4CDDF85F
:10A9A00030901E463B4BE41AE408240444F00304B0
:10A9B00080460D46204638491746DDE90ABAFCF7BD
:10A9C00037F8364936480022FDF7ACFB08B1FCF7F2
:10A9D0005DFB4FF010234FF448305B694FF080531C
:10A9E0001A695B69FFF79EFEBB282CD02D492046D3
:10A9F000FCF71EF82C4904224FF44830FFF718FFEB
:10AA00002A492B480422FFF713FF2A492A48042227
:10AA1000FFF70EFF29492A480422FFF709FF2949B9
:10AA200029480422FFF704FF284929480422FFF798
:10AA3000FFFE284928482822FFF7FAFE2749284820
:10AA40002822FFF7F5FE27492046FBF7F1FF1848BB
:10AA5000FFF768FEC8F800001748FFF763FE38608C
:10AA60001748FFF75FFE30601748FFF75BFE28606E
:10AA70001748FFF757FE5146CBF800001648FFF77E
:10AA8000ADFE49461648BDE8F84FFFF7A7BE00BF28
:10AA900020FD0200F0FC0200E80D03008406030024
:10AAA00098330020170E0300DC33002038340020D8
:10AAB000042003003C34002008200300D43300208D
:10AAC0000C2003003434002010200300E033002069
:10AAD000142003000C34002018200300E43300206D
:10AAE00040200300470E030008B50A480A4B0B49F3
:10AAF000C01AC008000440F00300FBF799FF0848A3
:10AB00000021FDF743FB18B1BDE80840FCF7BEBAD1
:10AB100008BD00BF20FD0200F0FC0200630E030030
:10AB20009833002041DF7047F0B506784278857889
:10AB3000C37804794179B704700407F4800700F4FE
:10AB40000000384301F001073843F70407F4001709
:10AB50003605384306F480163043160406F4803672
:10AB600030436E0206F400463043AE0206F48046DF
:10AB70003043EE0206F400562D03304305F48055B1
:10AB800028431D0205F480752843650005F0800503
:10AB90002843A50005F040052843E50005F0200501
:10ABA0002401284304F010042043CC1004F00804CE
:10ABB00020438C1004F004044910204301F00201EA
:10ABC0000843510301F400210843910301F480215B
:10ABD000D203084302F4003210435A0102F4006227
:10ABE00010439A0102F48062DB0103F40073104306
:10ABF0001843030248BF40F07F40F0BD4FF0A04330
:10AC000010B5D3F810350D4C13F4006F10D10C4B68
:10AC10000C480D49C01AC008000440F00300FBF7BF
:10AC200007FF4FF0FF332360084B01221A7010BD5D
:10AC30000748FFF779FF2060F6E700BFE0410020FA
:10AC4000F0FC020020FD0200B80E0300E4410020E9
:10AC5000D841002030B5104D104C85B0062200219F
:10AC6000284604F00DFC0E4B009308230022CDE98A
:10AC70000135694606230B482270039303F074FEE6
:10AC800008B1FCF703FAFFF74DFF2378002BFAD049
:10AC9000054B186805B030BDD8410020E4410020C4
:10ACA00040340020AC0E0300E04100201FB50D4BE6
:10ACB000009307230C4C01930C4B029300220623B4
:10ACC00069460B482270039303F04EFE08B1FCF76F
:10ACD000DDF9FFF727FF2378002BFAD0002004B01E
:10ACE00010BD00BF48340020E4410020D8410020BE
:10ACF000AC0E030030B5274B04460FCB85B06D4634
:10AD000085E80F0040F60A43ADF800300B238DF8BC
:10AD100002304FF08053029302238DF804301E4A14
:10AD20001E480023294603F0D5FC08B1FCF7AEF914
:10AD3000FFF7BCFF14F003040ED1194B19481A4950
:10AD4000C01AC008000440F00300FBF771FE174B67
:10AD5000A0229A7105B030BD012C0CD1104B1148C6
:10AD60001349C01AC008000440F00300FBF760FE5E
:10AD70000E4BA822EDE7022CECD1094B09480D49F6
:10AD8000C01AC008000440F00300FBF751FE074B57
:10AD90008022DEE7980E0300FDAB0200A80E030040
:10ADA000F0FC020020FD0200D60E0300403400201B
:10ADB000E70E0300F80E030010F0030008B50DD1F4
:10ADC000154B16481649C01AC008000440F003008D
:10ADD000FBF72EFE134BA0229A7108BD01280CD15F
:10ADE0000D4B0E481049C01AC008000440F0030083
:10ADF000FBF71EFE0B4BA822EEE70228EDD1064B17
:10AE000006480A49C01AC008000440F00300FBF7D6
:10AE10000FFE044B8022DFE7F0FC020020FD020061
:10AE2000D60E030040340020E70E0300F80E0300A6
:10AE30000369C1688B429DBF8268D21802F1FF325C
:10AE400003F1FF3394BF501A581A70472DE9F041AF
:10AE5000D0E9027405463E1B40689642204488466D
:10AE6000144404D904F0E3FAEC60BDE8F081324602
:10AE7000E41B04F0DCFA224608EB06016868F1E7FF
:10AE80002DE9F843C5680646894617464FF0000885
:10AE90003469B3687068A54228BFE418013C621B9E
:10AEA0005C1BBC4228BF3C46944228BF144649461E
:10AEB0002844224604F0BBFAB3682544AB4208BFDD
:10AEC00000253F1BA044A144F560E1D14046BDE808
:10AED000F883000010B5114C114AA2610223C4E9A5
:10AEE0000433104BE361A2644FF480630E4A236283
:10AEF000E264002310220D49A362E01D6362E36255
:10AF0000A3656365E365226504F0EDFA0849204610
:10AF100004F0E9FA2023A37110BD00BFE84100202E
:10AF20000A0F03007042002060420020130F03004C
:10AF3000170F0300F8B5184C182300FB033503FB6B
:10AF400000402544C46A012C0F46164611D024B196
:10AF5000022C1BD000242046F8BD2846FFF768FFCE
:10AF6000B042F8D3324639462846FFF76FFF3446E1
:10AF7000F1E72846FFF75CFF8642344628BF0446C7
:10AF8000224639462846FFF761FFE4E72846BDE838
:10AF9000F840FFF775BF00BFE8410020FFF79ABFF8
:10AFA000A8DF7047B0DF704762DF70470000000025
:10AFB00030B503788DB0002B40F0A58040680121AA
:10AFC000B0F9004003F064FA08B1FCF75FF84FF401
:10AFD000167314FB03F4002CB8BF04F2FF34A41260
:10AFE00004EB44046400A4B2204603F03BFF67A3D3
:10AFF000D3E9002303F0A0FD0022594B03F038FEF3
:10B0000003F01CFF574A83B21E205843904200F3BE
:10B01000A2802622B0FBF2F1534A90428DB274DD39
:10B02000C1F53B6108313A224A436FF0630192FB5C
:10B03000F1F26432D2B24D494D488DF80B20401ADE
:10B04000C0080092000422464A4C4B494B4D40F048
:10B050000300FBF704FD2168C888298888421DD1B8
:10B060001022002103A804F00BFA01238DF80C3004
:10B07000ADF816309DF8123043F001038DF8123010
:10B080000DF10B0306933E4B002203A91888ADF87F
:10B090001020FFF787FF08B1FBF7F8FF24682B8823
:10B0A000E2899A422DD107AD14220021284604F0EE
:10B0B000E7F9637E0193237E0093324A9DF80B30BB
:10B0C0001421284604F001F90021102203A804F0FD
:10B0D000D7F901238DF80C300023ADF81030082388
:10B0E000ADF816309DF81230069543F001038DF847
:10B0F0001230234B03A91888FFF754FF08B1FBF760
:10B10000C5FF03F097FA0DB030BD40F6B42295426A
:10B110000AD9C1F53561043118224A436FF09F0105
:10B1200092FBF1F22A3285E740F68810854206D973
:10B13000521A6FF0180192FBF1F212327AE740F6E0
:10B140003402954209D9411A06224A430E4992FB1C
:10B15000F1F206326EE764226DE700226BE700BF72
:10B160000000F43F4FBD01009DAE0100F0FC020065
:10B1700020FD0200744600203B0F03007A460020A9
:10B1800078460020700F0300ACFEFFFF666666661F
:10B19000666612401FB51549154803F0DDF808B181
:10B1A000FBF774FF134A10685168127A01AB03C3AE
:10B1B00001A900201A7003F011F908B1FBF766FF2E
:10B1C00001210D4803F064F908B1FBF75FFF01218D
:10B1D0000A4803F05DF908B1FBF758FF03F0ACF93A
:10B1E00008B1FBF753FF05B05DF804FBB1AF0200F7
:10B1F000370F03001E0F0300704600207246002028
:10B2000038B504460D4611B308B30388512B1ED13F
:10B210008379012B1BD1CA880389934208D10C4A38
:10B22000818811800B4A13800B4B1D60FFF7B2FF22
:10B23000EA89238993420AD1054AA1881180054AE7
:10B240001380054B1D60BDE83840FFF7A3BF38BD34
:10B25000784600207A460020744600202DE9F0430D
:10B26000884693B00546002800F0AE80002900F023
:10B27000AB800B6803600B79C376002303832A1D20
:10B28000012041F60F0301A98DF80600ADF8043046
:10B29000FFF786FE0446002840F092804B4B02AA3E
:10B2A00003F11007164618685968144603C408339A
:10B2B000BB422246F7D105F11A013046FFF774FE72
:10B2C000044600287CD1DFF80C9106AF014610221D
:10B2D000012638468DF8036004F0D2F84846CDF8D0
:10B2E0001C9004F049F9ADF81800484604F044F900
:10B2F0002146ADF81A0020220AA88DF8246004F037
:10B30000BFF842F61923ADF828304FF001130B9324
:10B310000DF103030C939DF83530A888109743F086
:10B3200002038DF8353098F80E308DF83B30AA1DA9
:10B3300098F80D308DF839300AA98DF8376001F092
:10B3400093FE044600283BD1DFF88C800146102292
:10B35000384604F095F84046CDF81C8004F00CF90E
:10B36000ADF81800404604F007F92146ADF81A0080
:10B3700020220AA88DF8246004F082F847F63223D0
:10B38000ADF82830AB7E8DF82A309DF83530A8888E
:10B390008DF83C4043F002038DF835304FF0081330
:10B3A0000B9305F10E020A4B10970AA98DF839602C
:10B3B0008DF83B608DF837600C9301F055FE044624
:10B3C000204613B0BDE8F0830E24F9E7270F0300F1
:10B3D000B03400204F3400207034002019B10A76B8
:10B3E0004B76002070470E207047A8DF70470000A2
:10B3F000F0B5074689B014461E460D4611B90846F9
:10B40000FBF744FE14B92046FBF740FE2022002142
:10B41000684604F035F89DF80D300E9AADF80070CE
:10B4200043F002038DF80D30064BADF80440694639
:10B430001888ADF8064002958DF8116001F014FEF1
:10B4400009B0F0BDB446002030B587B041F60A031C
:10B450000446564AADF80C30012003A98DF80E00C1
:10B46000FFF7C3FF0546002847D12288002A47D1AD
:10B47000228952B14E4B0093E16894F83C3042F679
:10B480002420FFF7B5FF002845D1228A52B1494B4D
:10B490000093616994F83C3042F62520FFF7A8FF3D
:10B4A000002838D1228B4AB1434B0093E16994F8CC
:10B4B0003C3042F62720FFF79BFF60BB228C4AB14D
:10B4C0003E4B0093616A94F83C3042F62620FFF729
:10B4D0008FFF00BB228D4AB1394B0093E16A94F88B
:10B4E0003C3042F62820FFF783FFA0B9236BA3B9B5
:10B4F000616B69BBA36B002B37D1284607B030BD09
:10B50000304B0093616894F83C3042F62920FFF7F5
:10B510006FFF0028ACD00546EFE7D3E90012049195
:10B520008DF814209B688DF815301A0A1B0C8DF8C5
:10B530001730254B8DF816200093082294F83C30E4
:10B5400004A942F62320FFF753FF0028D0D0E2E7FA
:10B550001E4B0A790093096894F83C3042F62A2081
:10B56000FFF746FF0028C5D0D5E71A788DF81020E0
:10B570005A888DF81120120A8DF812209A888DF8B9
:10B580001320120A8DF81420DB888DF815301B0A61
:10B590008DF816300E4B0093072294F83C3004A926
:10B5A00042F65020FFF724FFB5E700BFB446002065
:10B5B00094460020AC460020844600207C460020B3
:10B5C000B64600208C460020BE460020A44600203F
:10B5D0009C460020A8DF7047AEDF704762DF7047EF
:10B5E0000388532B0AD0562B12D0392B17D10C4875
:10B5F0000C4B0D49C01AC008000405E00848094B6F
:10B600000A49C01AC008000440F00300FBF710BA52
:10B610000348044B0649C01AC0080004F4E7704709
:10B6200020FD0200F0FC0200A20F03008D0F0300BA
:10B63000AF0F0300F0B5304B93B006AA044603F1F8
:10B640001007164618685968154603C50833BB42EB
:10B650002A46F7D104F10A013046FFF7BFFF05463D
:10B66000002845D1A37A8DF80630224643F6E253EE
:10B6700001A90120ADF80430FFF7ACFF0546B8BBC7
:10B680001E4E02AF01461022384603F0F9FE304646
:10B69000039603F071FFADF80800304603F06CFF2D
:10B6A00001262946ADF80A0020220AA88DF8146068
:10B6B00003F0E6FE47F67463ADF82830A37A8DF800
:10B6C0002A30BDF834301097224603F44D4343F43A
:10B6D0000053ADF8343032F8020B8DF839604FF07A
:10B6E00006130AA98DF83B600B9301F0BDFC0546DB
:10B6F000284613B0F0BD00BF7D0F0300B934002011
:10B7000070B586B004460E46154606231022002169
:10B7100002A8ADF8063003F0B3FE02238DF80A301C
:10B720007388ADF8083002A90DF10603204605958F
:10B730000493FFF751FF06B070BDA8DF704762DFCA
:10B7400070470388512B70B504460D4619D1837993
:10B75000022B16D102894B889A4200F1080604D1C7
:10B760004B6913B132468088984722896B899A4287
:10B7700007D1AB692BB132462946A088BDE870409D
:10B78000184770BD2DE9F0430B6843614B68836136
:10B7900093B04D4B06AA044603F1100716461868ED
:10B7A0005968154603C50833BB422A46F7D104F150
:10B7B00012013046FFF7C3FF054600287FD1A37C66
:10B7C0008DF80630224647F2622301A90120ADF828
:10B7D0000430FFF7B2FF0546002870D13B4E02AFA0
:10B7E00001461022384603F04BFE3046039603F024
:10B7F000C3FEADF80800304603F0BEFE0126294620
:10B80000ADF80A0020220AA88DF8146003F038FE73
:10B8100047F2EC43ADF82830A37C8DF82A309DF830
:10B8200035301097224623F00A0343F008034FF007
:10B83000141832F8020BCDF82C800AA98DF8353097
:10B84000ADF838608DF83A6001F00EFC0546B0BBEB
:10B85000DFF87C9001461022384603F011FE48467E
:10B86000CDF80C9003F088FEADF80800484603F0D0
:10B8700083FE2946ADF80A0020220AA88DF814603C
:10B8800003F0FEFD47F2A463ADF82830A37C8DF8E9
:10B890002A309DF83530CDF82C80224623F00A035B
:10B8A00043F0080332F80A0B8DF835300AA91097D7
:10B8B000ADF838608DF83A6001F0D6FB05462846B1
:10B8C00013B0BDE8F08300BFCA0F03000A350020A3
:10B8D000FA340020A8DF704762DF704770B5054674
:10B8E0000C46002972D0002870D00388512B6DD1EE
:10B8F0008379022B5BD102894B889A4200F10806BA
:10B9000004D14B6D13B13246808898472A896389E8
:10B910009A4205D1A36D1BB132462146A8889847AB
:10B920002A89638A9A4205D1E36D1BB132462146CA
:10B93000A88898472A89638B9A4205D1236E1BB148
:10B9400032462146A88898472A89638C9A4205D1B5
:10B95000636E1BB132462146A88898472A89638DB9
:10B960009A4205D1A36E1BB132462146A88898475A
:10B970002A89638E9A4205D1E36E1BB13246214675
:10B98000A88898472A89638F9A4205D1236F1BB1F3
:10B9900032462146A88898472A89B4F842309A420C
:10B9A00005D1636F1BB132462146A8889847AB7911
:10B9B000012B0BD12A89B4F84A309A4206D1A36FE1
:10B9C00023B12146A888BDE87040184770BD00002B
:10B9D0000B682DE9F04F43654B6883658B68C36541
:10B9E000CB6803660B6943664B6983668B69C366E4
:10B9F000CB6903670B6A43674B6A836793B0E94B74
:10BA000006AA054603F11007164618685968144639
:10BA100003C40833BB422246F7D105F15201304638
:10BA2000FFF75AFF0446002840F0978295F85230FD
:10BA30008DF806302A4644F2323301A90120ADF8D0
:10BA40000430FFF747FF0446002840F08682D64FB7
:10BA500002AE01461022304603F012FD384603972D
:10BA600003F08AFDADF80800384603F085FD012794
:10BA700021462022ADF80A000AA88DF8147003F0C0
:10BA8000FFFC45F6A453ADF8283095F852308DF8F8
:10BA90002A30BDF834308DF83C4003F47D43C34C6C
:10BAA000109643F400733B43ADF83430204628230E
:10BAB000ADF82C308DF839708DF83B7003F05CFDDB
:10BAC0002A46ADF82E000AA932F84A0B0C948DF8DC
:10BAD000377001F0C9FA0446002840F03E82DFF8D2
